S0100000436F6E74726F6C312E7372656302
S11300000C9434000C9488000C9451000C9451000E
S11300100C9451000C9451000C9451000C94510018
S11300200C9451000C9451000C9451000C94510008
S11300300C9451000C9451000C94A9000C945100A0
S11300400C9451000C9451000C9451000C945100E8
S11300500C9451000C9451000C9451000C945100D8
S11300600C9451000C94510011241FBECFEFD8E022
S1130070DEBFCDBF11E0A0E0B1E0E0E3F6E102C0F5
S113008005900D92A035B107D9F721E0A0E5B1E0C4
S113009001C01D92A23EB207E1F70E9488030C94AE
S11300A0160B0C94000080E480937C0087E8809316
S11300B07A0008958770ECE7F0E09081987F892BAF
S11300C08083EAE7F0E080818064808380917A0015
S11300D086FDFCCF8091780090917900089584B1D9
S11300E0866084B982EA809380008AE180938100EB
S11300F08FE39CE990938700809386000895909302
S113010089008093880070938B0060938A0008951F
S11301101F920F920FB60F9211248F93EF93FF93B8
S1130120109274011092770110927501109273016C
S113013016BC82E085BBEEE6F0E0808182608083BD
S11301401DBAFF91EF918F910F900FBE0F901F90EA
S113015018951F920F920FB60F9211242F938F931D
S11301609F93EF93FF9380917301811104C08F5F7C
S11301708093730139C02091740129307CF0EEE63C
S1130180F0E080818D7F80831092720181E0809302
S113019076018CBB8DB381608DBB26C089B183FB96
S11301A0882780F98093720190E0022E02C0880FA4
S11301B0991F0A94E2F790917701892B8093770134
S11301C089B1829581708093710190E0022E02C002
S11301D0880F991F0A94E2F790917501892B8093F7
S11301E075012F5F20937401FF91EF919F918F917F
S11301F02F910F900FBE0F901F901895E9E6F0E035
S113020010821DBA8081836080838DB381608DBB31
S1130210089582E084BD85BD83E687BD08952F924D
S11302203F924F925F926F927F928F929F92AF9282
S1130230BF92CF92DF92EF92FF920F931F93CF93CF
S1130240DF93CDB7DEB7C254D1090FB6F894DEBF41
S11302500FBECDBFD62E49015A01EFAAF8AE09AFA1
S11302601AAF682F70E080E090E00E94D40620E08E
S113027030E040E05EE30E94890720E030E040E7A0
S113028051E40E94B8052B013C016D2D70E071957D
S113029061957109072E000C880B990B0E94D406F6
S11302A020E030E040E05EE30E94890720E030E097
S11302B040E751E40E94B9056BAB7CAB8DAB9EABC0
S11302C0209104013091050181E090E0B9010E9480
S11302D0F6071B0170930B0160930A01E091000182
S11302E0F0910101CF01B9010E94F6078B017093CF
S11302F00D0160930C014091020150910301E49FB0
S1130300C001E59F900DF49F900D1124B9010E9446
S1130310F6077B0170930F0160930E01A301920114
S1130320C501B4010E94B8056BAF7CAF8DAF9EAF21
S11303306093800170938101809382019093830183
S11303402BA93CA94DA95EA96FA978AD89AD9AAD39
S11303500E94B8056FAB78AF89AF9AAF6093DE01A6
S11303607093DF018093E0019093E101C701B10133
S11303700E94F607072E000C880B990B0E94D406E6
S11303802B013C01000F111FC0900601D090070102
S1130390E0900801F0900901B101032C000C880BD6
S11303A0990B0E94D406A70196010E9489074B016C
S11303B05C01B801110F880B990B0E94D406A501AA
S11303C094010E942A066BAB7CAB8DAB9EAB9B0168
S11303D0AC01C301B2010E94B80523966CAF7DAF96
S11303E08EAF9FAF239720918E0130918F01409162
S11303F09001509191010E9489074B015C0181E0B9
S113040090E0B1010E94F6078B01A701960160E01C
S113041070E080E090E40E942A066B017C01B80140
S1130420110F880B990B0E94D406A70196010E9414
S1130430B8056B017C019B01AC01C501B4010E94AC
S11304402A0620916501309166014091670150911F
S113045068010E94B8054B015C012BA93CA94DA978
S11304605EA9C301B2010E94B9052B013C019B01A5
S1130470AC016BAD7CAD8DAD9EAD0E948907A7012B
S113048096010E942A069B01AC01C501B4010E9499
S1130490B9054B015C0160936D0170936E0180930B
S11304A06F01909370012091D8013091D90140914E
S11304B0DA015091DB0123966CAD7DAD8EAD9FAD1D
S11304C023970E948907A70196010E942A0620917A
S11304D061013091620140916301509164010E9475
S11304E0B8056BAB7CAB8DAB9EABA30192016FA93E
S11304F078AD89AD9AAD0E948907A70196010E9443
S11305002A069B01AC016BA97CA98DA99EA90E9416
S1130510B9052B013C016093690170936A018093D2
S11305206B0190936C0120E030E044EB52ECC50188
S1130530B4010E9484071816E4F420E030E044EB90
S113054052E4C501B4010E942506882394F420E0F6
S113055030E040EB51E4C501B4010E94890720E07A
S113056030E84BE355E40E94B9050E94A3068B01D1
S11305700FC020E030E044EB52ECC501B4010E940E
S1130580250618161CF008E813E102C008EE13E073
S113059020E030E044EB52ECC301B2010E94840736
S11305A01816E4F420E030E044EB52E4C301B20155
S11305B00E942506882394F420E030E040EB51ECBF
S11305C0C301B2010E94890720E030E84BE355E4FF
S11305D00E94B9050E94A3067B0117C020E030E009
S11305E044EB52ECC301B2010E94250618163CF0FC
S11305F00F2EF8E8EF2EF3E1FF2EF02D06C00F2E9C
S1130600F8EEEF2EF3E0FF2EF02D8BAD9CADADADEB
S1130610BEAD80938E0190938F01A0939001B0930F
S113062091018FA998ADA9ADBAAD8093D8019093EB
S1130630D901A093DA01B093DB0180926501909215
S11306406601A0926701B0926801409261015092E4
S11306506201609263017092640120E030E044EB37
S113066052E4C501B4010E94B9050E949C06D62E2D
S1130670C72E20E030E044EB52E4C301B2010E94F3
S1130680B9050E949C06B62EA72EB701C8010E9488
S11306907F001F928DE08F93809175011F928F933D
S11306A0809177011F928F93AF92BF92CF92DF9286
S11306B082E191E09F938F931F9282E38F938E0147
S11306C00F5F1F4F1F930F930E941E08C8010E94C3
S11306D09F050FB6F894DEBF0FBECDBFCE5BDF4FD4
S11306E00FB6F894DEBF0FBECDBFDF91CF911F913F
S11306F00F91FF90EF90DF90CF90BF90AF909F90BD
S11307008F907F906F905F904F903F902F900895BF
S11307100E946F000E94530087E690E00E948D05BE
S11307200E9409010E94FE0084B1877F84B984B1CC
S1130730806284B985B18F7D85B985B1886085B9BA
S11307408AB1837E8AB98AB180628AB98AB18064A7
S11307508AB98BB184608BB98BB188608BB98BB14A
S113076080618BB978940E94AC05892B51F00E946A
S1130770B105809310018D3421F40E94B10580935A
S1130780110180917601813009F04AC0809177018E
S11307908F3F29F0809175018F3F09F041C010927D
S11307A0760168EB7BE088EB9BE00E947F0010926F
S11307B05D0110925E0110925F011092600110922F
S11307C0590110925A0110925B0110925C011F9220
S11307D08DE08F93809175011F928F9380917701A3
S11307E01F928F931F928AE58F931F928F9382E1BA
S11307F091E09F938F931F9286E48F9382E991E017
S11308009F938F930E941E0882E991E00E949F05A6
S11308108DB79EB740960FB6F8949EBF0FBE8DBF9E
S113082080915001813009F4C1C020F0823009F474
S113083013C199CF80E00E945A00099690938701D2
S11308408093860181E00E945A00EC019093890113
S113085080938801609186017091870180E090E027
S11308600E94D2066B017C012BE03DE244E35EE38F
S11308700E9489070E949C067093DD016093DC014D
S1130880BE0180E090E00E94D2064B015C012BE0A7
S11308903DE244E35EE30E9489070E949C06709354
S11308A085016093840120E93EE34AEF5FE3C701D9
S11308B0B6010E94890720E030E04AEF54E40E9428
S11308C0B9050E949C066B017C0170938D016093B5
S11308D08C0120E93EE34AEF5FE3C501B4010E94C5
S11308E0890720E030E04AEF54E40E94B9050E94F1
S11308F09C0670938B0160938A01C6010E947F005D
S1130900809111018033D1F481E08093500168EB30
S11309107BE088EB9BE00E947F0010925D011092C7
S11309205E0110925F0110926001109259011092C1
S11309305A0110925B0110925C0115CF80917601EF
S1130940813009F010CF109276011F928DE08F93C1
S1130950809175011F928F93809177011F928F93DD
S1130960809185018F93809184018F938091DD0123
S11309708F938091DC018F9382E191E09F938F9319
S11309801F9286E48F9382E991E09F938F930E9454
S11309901E0882E991E00E949F058DB79EB740969C
S11309A00FB6F8949EBF0FBE8DBFDDCE80911101AE
S11309B08133C9F468EB7BE088EB9BE00E947F0005
S11309C010925D0110925E0110925F01109260011D
S11309D01092590110925A0110925B0110925C011D
S11309E010925001C0CE1B990AC082E0809350013E
S11309F08FE493EC0197F1F700C00000B4CE80912E
S1130A007601813009F0AFCE109276011F928DE00D
S1130A108F93809175011F928F93809177011F921C
S1130A208F931F928AE58F931F928F9382E191E0B7
S1130A309F938F931F9286E48F9382E991E09F9313
S1130A408F930E941E088DB79EB740960FB6F894F8
S1130A509EBF0FBE8DBF87CE1B991FC081E08093C0
S1130A60500168EB7BE088EB9BE00E947F001092D2
S1130A705D0110925E0110925F011092600110926C
S1130A80590110925A0110925B0110925C018FE49B
S1130A9093EC0197F1F700C00000809111018133BC
S1130AA0C1F468EB7BE088EB9BE00E947F0010922E
S1130AB05D0110925E0110925F011092600110922C
S1130AC0590110925A0110925B0110925C0110922C
S1130AD0500180917601813009F045CE80917701F3
S1130AE08F3F09F440CE609175016F3F09F43BCE0E
S1130AF010927601E0905101F0905201009153015F
S1130B0010915401209155013091560140915701A3
S1130B10509158010E940F0126CE9093C5008093F6
S1130B20C40088E18093C10086E08093C2000895E8
S1130B309091C00095FFFCCF8093C6000895CF9399
S1130B40DF93EC0103C021960E94980588818111EE
S1130B50FACFDF91CF9108958091C000807890E022
S1130B6008958091C0008823E4F78091C600089519
S1130B705058BB27AA270E94D0050C944A070E940C
S1130B803C0738F00E94430720F039F49F3F19F4E2
S1130B9026F40C9439070EF4E095E7FB0C94330724
S1130BA0E92F0E945B0758F3BA176207730784079B
S1130BB0950720F079F4A6F50C947D070EF4E095E2
S1130BC00B2EBA2FA02D0B01B90190010C01CA0103
S1130BD0A0011124FF27591B99F0593F50F4503EAE
S1130BE068F11A16F040A22F232F342F4427585FA0
S1130BF0F3CF469537952795A795F0405395C9F7B8
S1130C007EF41F16BA0B620B730B840BBAF091506F
S1130C10A1F0FF0FBB1F661F771F881FC2F70EC00E
S1130C20BA0F621F731F841F48F4879577956795E1
S1130C30B795F7959E3F08F0B0CF9395880F08F0CD
S1130C409927EE0F9795879508950E940F0708F44A
S1130C5081E008950E943E060C944A070E944307CF
S1130C6058F00E943C0740F029F45F3F29F00C94AF
S1130C70330751110C947E070C9439070E945B07CB
S1130C8068F39923B1F3552391F3951B550BBB27B7
S1130C90AA2762177307840738F09F5F5F4F220FFC
S1130CA0331F441FAA1FA9F335D00E2E3AF0E0E8F3
S1130CB032D091505040E695001CCAF72BD0FE2F3D
S1130CC029D0660F771F881FBB1F261737074807D1
S1130CD0AB07B0E809F0BB0B802DBF01FF27935889
S1130CE05F4F3AF09E3F510578F00C9433070C9413
S1130CF07E075F3FE4F3983ED4F386957795679536
S1130D00B795F7959F5FC9F7880F911D96958795BD
S1130D1097F90895E1E0660F771F881FBB1F6217DC
S1130D2073078407BA0720F0621B730B840BBA0B9A
S1130D30EE1F88F7E09508950E94A3066894B11108
S1130D400C947E0708950E94630788F09F5798F0DB
S1130D50B92F9927B751B0F0E1F0660F771F881FBC
S1130D60991F1AF0BA95C9F714C0B13091F00E94D6
S1130D707D07B1E008950C947D07672F782F8827AD
S1130D80B85F39F0B93FCCF3869577956795B395FD
S1130D90D9F73EF490958095709561957F4F8F4F6C
S1130DA09F4F0895E89409C097FB3EF49095809571
S1130DB0709561957F4F8F4F9F4F9923A9F0F92F1D
S1130DC096E9BB279395F695879577956795B7959B
S1130DD0F111F8CFFAF4BB0F11F460FF1BC06F5F81
S1130DE07F4F8F4F9F4F16C0882311F096E911C093
S1130DF0772321F09EE8872F762F05C0662371F0B4
S1130E0096E8862F70E060E02AF09A95660F771FC7
S1130E10881FDAF7880F9695879597F90895990FA3
S1130E200008550FAA0BE0E8FEEF16161706E807B0
S1130E30F907C0F012161306E407F50798F0621BD1
S1130E40730B840B950B39F40A2661F0232B242BA6
S1130E50252B21F408950A2609F4A140A6958FEFC5
S1130E60811D811D089597F99F6780E870E060E017
S1130E7008959FEF80EC089500240A94161617062F
S1130E8018060906089500240A9412161306140677
S1130E9005060895092E0394000C11F4882352F0DA
S1130EA0BB0F40F4BF2B11F460FF04C06F5F7F4F92
S1130EB08F4F9F4F089557FD9058440F551F59F079
S1130EC05F3F71F04795880F97FB991F61F09F3F33
S1130ED079F087950895121613061406551FF2CF5C
S1130EE04695F1DF08C0161617061806991FF1CFAC
S1130EF086957105610508940895E894BB276627D3
S1130F007727CB0197F908950E940F0708F48FEF14
S1130F1008950E949C070C944A070E943C0738F0ED
S1130F200E94430720F0952311F00C9433070C948E
S1130F30390711240C947E070E945B0770F3959F78
S1130F40C1F3950F50E0551F629FF001729FBB27BC
S1130F50F00DB11D639FAA27F00DB11DAA1F649F58
S1130F606627B00DA11D661F829F2227B00DA11D0B
S1130F70621F739FB00DA11D621F839FA00D611D91
S1130F80221F749F3327A00D611D231F849F600DB2
S1130F90211D822F762F6A2F11249F5750409AF0DB
S1130FA0F1F088234AF0EE0FFF1FBB1F661F771F67
S1130FB0881F91505040A9F79E3F510580F00C9432
S1130FC033070C947E075F3FE4F3983ED4F3869591
S1130FD077956795B795F795E7959F5FC1F7FE2BD2
S1130FE0880F911D9695879597F9089597FB072E7D
S1130FF016F4009407D077FD09D00E940A0807FC74
S113100005D03EF4909581959F4F08957095619514
S11310107F4F0895AA1BBB1B51E107C0AA1FBB1F2A
S1131020A617B70710F0A61BB70B881F991F5A9570
S1131030A9F780959095BC01CD010895AEE0B0E08C
S1131040E4E2F8E00C94ED0A0D891E898F89988DED
S113105026E02C831A83098397FF02C080E090E87E
S113106001979E838D83AE01455E5F4F698D7A8DB6
S1131070CE0101960E944E084D815E8157FD0AC043
S11310802F813885421753070CF49A01F801E20FB7
S1131090F31F10822E96E4E00C94090BABE0B0E051
S11310A0E4E5F8E00C94DF0A6C017B018A01FC01A1
S11310B017821682838181FFCCC1CE0101963C0147
S11310C0F6019381F70193FD859193FF81917F014F
S11310D0882309F4BAC1853239F493FD859193FFCD
S11310E081917F01853229F4B60190E00E94450A7E
S11310F0E7CF912C212C312CFFE1F315D8F08B3262
S113110079F038F4803279F08332A1F4232D206110
S11311101DC08D3261F0803369F4232D216016C027
S1131120832D8260382EE32DE4603E2E2AC0F32DF9
S1131130F8601DC037FC2DC020ED280F2A3040F088
S11311408E32B9F436FC81C1232D2064322E19C0AD
S113115036FE06C08AE0989E200D1124922E11C0FE
S1131160EAE02E9E200D1124222EF32DF0623F2E54
S113117008C08C3621F4832D8068382E02C088364E
S113118041F4F70193FD859193FF81917F018111D2
S1131190B3CF982F9F7D9554933028F40C5F1F4F45
S11311A09FE399830DC0833631F0833771F0833523
S11311B009F059C021C0F801808189830E5F1F4F57
S11311C088248394912C530113C02801F2E04F0E1C
S11311D0511CF801A080B18036FE03C0692D70E077
S11311E002C06FEF7FEFC5010E943A0A4C018201F1
S11311F0F32DFF773F2E16C0280122E0420E511C2A
S1131200F801A080B18036FE03C0692D70E002C0F1
S11312106FEF7FEFC5010E942F0A4C01F32DF06898
S11312203F2E820133FC1BC0822D90E08816990664
S1131230B0F4B60180E290E00E94450A2A94F4CF0B
S1131240F50137FC859137FE81915F01B60190E08D
S11312500E94450A21102A9421E0821A91088114DF
S1131260910471F7E8C0843611F0893641F5F8012C
S113127037FE07C060817181828193810C5F1F4FAB
S113128008C060817181072E000C880B990B0E5FDA
S11312901F4FF32DFF763F2E97FF09C09095809541
S11312A0709561957F4F8F4F9F4FF0683F2E2AE0D6
S11312B030E0A3010E94810A882E861845C0853734
S11312C031F4232D2F7EB22E2AE030E025C0932D59
S11312D0997FB92E8F36C1F018F4883579F0B5C0EE
S11312E0803719F0883721F0B0C0E92FE061BE2EB5
S11312F0B4FE0DC0FB2DF460BF2E09C034FE0AC03D
S1131300292F2660B22E06C028E030E005C020E177
S113131030E002C020E132E0F801B7FE07C060818E
S11313207181828193810C5F1F4F06C0608171813E
S113133080E090E00E5F1F4FA3010E94810A882E77
S11313408618FB2DFF773F2E36FE0DC0232D2E7FF2
S1131350A22E891458F434FE0BC032FC09C0832D2C
S11313608E7EA82E05C0B82CA32C03C0B82C01C0B7
S1131370B92CA4FE0FC0FE01E80DF11D808180335D
S113138021F49A2D997EA92E09C0A2FE06C0B39419
S1131390B39404C08A2D867809F0B394A3FC11C0D9
S11313A0A0FE06C0B21488F4280C922C9B180EC020
S11313B0B21460F4B60180E290E00E94450AB3944E
S11313C0F7CFB21418F42B1802C0982C212CA4FEC9
S11313D010C0B60180E390E00E94450AA2FE17C047
S11313E0A1FC03C088E790E002C088E590E0B60164
S11313F00CC08A2D867859F0A1FE02C08BE201C090
S113140080E2A7FC8DE2B60190E00E94450A8914AF
S113141038F4B60180E390E00E94450A9A94F7CF2D
S11314208A94F301E80DF11D8081B60190E00E94D9
S1131430450A8110F5CF222009F442CEB60180E29C
S113144090E00E94450A2A94F6CFF601868197819E
S113145002C08FEF9FEF2B96E2E10C94FB0AFC0194
S11314600590615070400110D8F7809590958E0FCB
S11314709F1F0895FC016150704001900110D8F73E
S1131480809590958E0F9F1F08950F931F93CF9370
S1131490DF93FB01238121FD03C08FEF9FEF2CC05D
S11314A022FF16C046815781248135814217530794
S11314B044F4A081B1819D012F5F3F4F318320838C
S11314C08C93268137812F5F3F4F3783268314C047
S11314D08B01EC01FB010084F185E02D0995892B3A
S11314E0E1F6D80116968D919C911797019617965F
S11314F09C938E931697CE01DF91CF911F910F91FC
S11315000895FA01AA27283051F1203181F1E89495
S11315106F936E7F6E5F7F4F8F4F9F4FAF4FB1E0E2
S11315203ED0B4E03CD0670F781F891F9A1FA11DDD
S1131530680F791F8A1F911DA11D6A0F711D811DDE
S1131540911DA11D20D009F468943F912AE0269FA3
S113155011243019305D3193DEF6CF010895462F02
S11315604770405D4193B3E00FD0C9F7F6CF462FE3
S11315704F70405D4A3318F0495D31FD405241934C
S113158002D0A9F7EACFB4E0A69597958795779509
S11315906795BA95C9F700976105710508959B0190
S11315A0AC010A2E06945795479537952795BA9519
S11315B0C9F7620F731F841F951FA01D08952F92F2
S11315C03F924F925F926F927F928F929F92AF92CF
S11315D0BF92CF92DF92EF92FF920F931F93CF931C
S11315E0DF93CDB7DEB7CA1BDB0B0FB6F894DEBFB3
S11315F00FBECDBF09942A88398848885F846E84D9
S11316007D848C849B84AA84B984C884DF80EE8022
S1131610FD800C811B81AA81B981CE0FD11D0FB62B
S1131620F894DEBF0FBECDBFED010895F894FFCF4F
S113163028003C0032000AD7A33CB0043200460024
S113164030015B25753D25755D7B2278223A256442
S11316502C2279223A25642C2272223A25647D0AAE
S1131660003A00506F6C6F004365726F0047616E03
S1131670616E63696100526566580052656659007F
S9030000FC
