:100000000C9434000C9488000C9451000C94510012
:100010000C9451000C9451000C9451000C9451001C
:100020000C9451000C9451000C9451000C9451000C
:100030000C9451000C9451000C94A9000C945100A4
:100040000C9451000C9451000C9451000C945100EC
:100050000C9451000C9451000C9451000C945100DC
:100060000C9451000C94510011241FBECFEFD8E026
:10007000DEBFCDBF11E0A0E0B1E0EAEBF9E102C0E4
:1000800005900D92A234B107D9F721E0A2E4B1E0C6
:1000900001C01D92A63CB207E1F70E94CC030C946C
:1000A000DB0C0C94000080E480937C0087E8809354
:1000B0007A0008958770ECE7F0E09081987F892BB3
:1000C0008083EAE7F0E080818064808380917A0019
:1000D00086FDFCCF8091780090917900089584B1DD
:1000E000866084B982EA809380008AE180938100EF
:1000F0008FE39CE990938700809386000895909306
:1001000089008093880070938B0060938A00089523
:100110001F920F920FB60F9211248F93EF93FF93BC
:1001200010926401109267011092650110926301B0
:1001300016BC82E085BBEEE6F0E0808182608083C1
:100140001DBAFF91EF918F910F900FBE0F901F90EE
:1001500018951F920F920FB60F9211242F938F9321
:100160009F93EF93FF9380916301811104C08F5F90
:100170008093630139C02091640129307CF0EEE660
:10018000F0E080818D7F80831092620181E0809316
:1001900066018CBB8DB381608DBB26C089B183FBAA
:1001A000882780F98093620190E0022E02C0880FB8
:1001B000991F0A94E2F790916701892B8093670158
:1001C00089B1829581708093610190E0022E02C016
:1001D000880F991F0A94E2F790916501892B80930B
:1001E00065012F5F20936401FF91EF919F918F91A3
:1001F0002F910F900FBE0F901F901895E9E6F0E039
:1002000010821DBA8081836080838DB381608DBB35
:10021000089582E084BD85BD83E687BD08954F9231
:100220005F926F927F928F929F92AF92BF92CF9286
:10023000DF92EF92FF920F931F93CF93DF93CDB78F
:10024000DEB7C654D1090FB6F894DEBF0FBECDBFDE
:10025000D62E7A018901682F70E080E090E00E943C
:10026000240720E030E040E05EE30E94D90720E070
:1002700030E040E751E40E9408066BAF7CAF8DAFE1
:100280009EAF6D2D70E0719561957109072E000C80
:10029000880B990B0E94240720E030E040E05EE3E9
:1002A0000E94D90720E030E040E751E40E940906AF
:1002B0002B013C01B701FF0C880B990B0E9424070E
:1002C0002BAD3CAD4DAD5EAD0E94080623966CAFE4
:1002D0007DAF8EAF9FAF2397B801110F880B990B9D
:1002E0000E942407A30192010E94080627966CAF82
:1002F0007DAF8EAF9FAF279760910A0170910B0180
:10030000072E000C880B990B0E94240720E030E098
:1003100048EC52E40E947A066B017C019B01AC011F
:1003200023966CAD7DAD8EAD9FAD23970E94D9070E
:100330006BAB7CAB8DAB9EABA701960127966CADEA
:100340007DAD8EAD9FAD27970E94D9076FAB78AF7B
:1003500089AF9AAF2BAD3CAD4DAD5EAD609155010F
:100360007091560180915701909158010E940806A2
:100370004B015C016091060170910701072E000C92
:10038000880B990B0E9424076B017C019B01AC0137
:10039000C501B4010E94D90720E030E048EC52E4E6
:1003A0000E947A064B015C0160934D0170934E01EF
:1003B00080934F0190935001A301920160915101EC
:1003C0007091520180915301909154010E9408064E
:1003D0009B01AC01C701B6010E94D90720E030E0C3
:1003E00048EC52E40E947A066B017C01609349015B
:1003F00070934A0180934B0190934C01A5019401A5
:100400006BA97CA98DA99EA90E94090680905D0117
:1004100090905E01A0905F01B0906001A5019401F1
:100420000E9409066BAB7CAB8DAB9EABA70196011E
:100430006FA978AD89AD9AAD0E940906C0905901A7
:10044000D0905A01E0905B01F0905C01A701960109
:100450000E9409066FAB78AF89AF9AAF20E030E019
:1004600044EB52EC6BA97CA98DA99EA90E94D407EC
:1004700018160CF048C020E030E044EB52E46BA9C1
:100480007CA98DA99EA90E9475068823E4F5609138
:10049000080170910901072E000C880B990B0E942E
:1004A00024079B01AC0123966CAD7DAD8EAD9FAD55
:1004B00023970E94D90720E030E44CE156E40E94E3
:1004C0007A069B01AC01C501B4010E940906609344
:1004D0005D0170935E0180935F019093600120E065
:1004E00030E040EB51E46BA97CA98DA99EA90E9444
:1004F000D90720E030E84BE355E40E9409060E944A
:10050000F3068B0111C020E030E044EB52EC6BA904
:100510007CA98DA99EA90E94750618161CF008E8F2
:1005200013E102C008EE13E08BAD9CADADADBEADE6
:100530008093550190935601A0935701B0935801B1
:1005400020E030E044EB52EC6FA978AD89AD9AAD74
:100550000E94D40718160CF048C020E030E044EBAD
:1005600052E46FA978AD89AD9AAD0E9475068823D3
:10057000E4F56091080170910901072E000C880BC9
:10058000990B0E9424079B01AC0127966CAD7DADB1
:100590008EAD9FAD27970E94D90720E030E44CE153
:1005A00056E40E947A069B01AC01C701B6010E9485
:1005B00009066093590170935A0180935B019093EF
:1005C0005C0120E030E040EB51EC6FA978AD89ADE3
:1005D0009AAD0E94D90720E030E84BE355E40E9431
:1005E00009060E94F3067B0119C020E030E044EBCD
:1005F00052EC6FA978AD89AD9AAD0E9475061816B8
:100600003CF00F2EF8E8EF2EF3E1FF2EF02D06C0A0
:100610000F2EF8EEEF2EF3E0FF2EF02D4092510159
:1006200050925201609253017092540120E030E0E8
:1006300044EB52E46BA97CA98DA99EA90E940906EE
:100640000E94EC06D62EC72E20E030E044EB52E4A8
:100650006FA978AD89AD9AAD0E9409060E94EC069B
:10066000B62EA72EB701C8010E947F001F9289E114
:100670008F93809165011F928F93809167011F92E4
:100680008F93AF92BF92CF92DF928EE091E09F93D3
:100690008F931F9282E38F938E010F5F1F4F1F93E3
:1006A0000F930E94C208C8010E94D4050FB6F894A7
:1006B000DEBF0FBECDBFCA5BDF4F0FB6F894DEBF03
:1006C0000FBECDBFDF91CF911F910F91FF90EF90A3
:1006D000DF90CF90BF90AF909F908F907F906F9062
:1006E0005F904F9008950F931F93CF93DF930E94D5
:1006F00064086DE271E00E947E08EC016DE271E039
:1007000080E090E00E947E08209709F440C00097A6
:10071000F1F10E9446088C016FE271E0CE010E9467
:100720008308892B29F410930B0100930A012FC031
:1007300062E371E0CE010E948308892B29F41093B3
:1007400009010093080123C065E371E0CE010E9416
:100750008308892B29F4109307010093060117C021
:1007600068E371E0CE010E948308892B29F410937D
:100770004801009347010BC06DE371E0CE010E9478
:100780008308892B21F41093460100934501DF91E2
:10079000CF911F910F9108950E946F000E94530006
:1007A00087E690E00E94C2050E9409010E94FE00B7
:1007B00084B1877F84B984B1806284B985B18F7D2B
:1007C00085B985B1886085B98AB1837E8AB98AB1D5
:1007D00080628AB98AB180648AB98BB184608BB92E
:1007E0008BB188608BB98BB180618BB978940E9492
:1007F000E105892B51F00E94E60580930C018D34B0
:1008000021F40E94E60580930D01809166018130FC
:1008100009F04AC0809167018F3F29F080916501FE
:100820008F3F09F041C01092660168EB7BE088EBD6
:100830009BE00E947F0010925D0110925E01109279
:100840005F01109260011092590110925A011092AA
:100850005B0110925C011F9289E18F938091650189
:100860001F928F93809167011F928F931F928AE549
:100870008F931F928F938EE091E09F938F931F929F
:1008800086E48F938AE791E09F938F930E94C2083A
:100890008AE791E00E94D4058DB79EB740960FB6C7
:1008A000F8949EBF0FBE8DBF80914401813009F442
:1008B000C1C020F0823009F423C199CF80E00E94AA
:1008C0005A000996909373018093720181E00E940F
:1008D0005A00EC019093750180937401609172014C
:1008E0007091730180E090E00E9422076B017C010F
:1008F0002BE03DE244E35EE30E94D9070E94EC0650
:100900007093C1016093C001BE0180E090E00E943D
:1009100022074B015C012BE03DE244E35EE30E94D1
:10092000D9070E94EC06709371016093700120E971
:100930003EE34AEF5FE3C701B6010E94D90720E01A
:1009400030E04AEF54E40E9409060E94EC066B0175
:100950007C01709379016093780120E93EE34AEFCE
:100960005FE3C501B4010E94D90720E030E04AEFFF
:1009700054E40E9409060E94EC067093770160938C
:100980007601C6010E947F0080910D018033D1F471
:1009900081E08093440168EB7BE088EB9BE00E9460
:1009A0007F0010925D0110925E0110925F01109223
:1009B00060011092590110925A0110925B0110923D
:1009C0005C0115CF80916601813009F010CF109243
:1009D00066011F9289E18F93809165011F928F9329
:1009E000809167011F928F93809171018F93809105
:1009F00070018F938091C1018F938091C0018F937B
:100A00008EE091E09F938F931F9286E48F938AE705
:100A100091E09F938F930E94C2088AE791E00E9421
:100A2000D4058DB79EB740960FB6F8949EBF0FBE03
:100A30008DBFDDCE80910D018133C9F468EB7BE081
:100A400088EB9BE00E947F0010925D0110925E0196
:100A500010925F01109260011092590110925A0198
:100A600010925B0110925C0110924401C0CE809103
:100A70000C01803569F488E780930C01F89488E6CE
:100A800091E00E94ED0588E691E00E94730378945E
:100A900080910C01843739F488E780930C0182E05F
:100AA00080934401A4CE80916601813009F09FCEED
:100AB000109266011F9289E18F93809165011F92C8
:100AC0008F93809167011F928F931F928AE58F9376
:100AD0001F928F938EE091E09F938F931F9286E4F5
:100AE0008F938AE791E09F938F930E94C2088DB7FE
:100AF0009EB740960FB6F8949EBF0FBE8DBF77CEBF
:100B000080910C01863631F488E780930C0181E0F6
:100B10008093440180910D018133C1F468EB7BE047
:100B200088EB9BE00E947F0010925D0110925E01B5
:100B300010925F01109260011092590110925A01B7
:100B400010925B0110925C01109244018091660149
:100B5000813009F04CCE809167018F3F09F447CE78
:100B6000609165016F3F09F442CE109266012091B9
:100B700045013091460140914701509148010E9442
:100B80000F0135CE9093C5008093C40088E1809317
:100B9000C10086E08093C20008959091C00095FF47
:100BA000FCCF8093C6000895CF93DF93EC0103C080
:100BB00021960E94CD0588818111FACFDF91CF91D6
:100BC00008958091C000807890E008958091C000E1
:100BD0008823E4F78091C60008950F931F93CF9365
:100BE000DF938C010E94E605C0E0D0E007C0F80169
:100BF000EC0FFD1F808321960E94E6058A30B9F72D
:100C0000C00FD11F1882DF91CF911F910F910895CE
:100C10005058BB27AA270E9420060C949A070E94CE
:100C20008C0738F00E94930720F039F49F3F19F4A5
:100C300026F40C9489070EF4E095E7FB0C948307E7
:100C4000E92F0E94AB0758F3BA17620773078407AE
:100C5000950720F079F4A6F50C94CD070EF4E095F5
:100C60000B2EBA2FA02D0B01B90190010C01CA0166
:100C7000A0011124FF27591B99F0593F50F4503E11
:100C800068F11A16F040A22F232F342F4427585F03
:100C9000F3CF469537952795A795F0405395C9F71B
:100CA0007EF41F16BA0B620B730B840BBAF09150D3
:100CB000A1F0FF0FBB1F661F771F881FC2F70EC072
:100CC000BA0F621F731F841F48F487957795679545
:100CD000B795F7959E3F08F0B0CF9395880F08F031
:100CE0009927EE0F9795879508950E945F0708F45E
:100CF00081E008950E948E060C949A070E94930743
:100D000058F00E948C0740F029F45F3F29F00C94C2
:100D1000830751110C94CE070C9489070E94AB07EE
:100D200068F39923B1F3552391F3951B550BBB271A
:100D3000AA2762177307840738F09F5F5F4F220F5F
:100D4000331F441FAA1FA9F335D00E2E3AF0E0E856
:100D500032D091505040E695001CCAF72BD0FE2FA0
:100D600029D0660F771F881FBB1F26173707480734
:100D7000AB07B0E809F0BB0B802DBF01FF279358EC
:100D80005F4F3AF09E3F510578F00C9483070C9426
:100D9000CE075F3FE4F3983ED4F386957795679549
:100DA000B795F7959F5FC9F7880F911D9695879521
:100DB00097F90895E1E0660F771F881FBB1F621740
:100DC00073078407BA0720F0621B730B840BBA0BFE
:100DD000EE1F88F7E09508950E94F3066894B1111C
:100DE0000C94CE0708950E94B30788F09F5798F09F
:100DF000B92F9927B751B0F0E1F0660F771F881F20
:100E0000991F1AF0BA95C9F714C0B13091F00E9439
:100E1000CD07B1E008950C94CD07672F782F882770
:100E2000B85F39F0B93FCCF3869577956795B39560
:100E3000D9F73EF490958095709561957F4F8F4FCF
:100E40009F4F0895E89409C097FB3EF490958095D4
:100E5000709561957F4F8F4F9F4F9923A9F0F92F80
:100E600096E9BB279395F695879577956795B795FE
:100E7000F111F8CFFAF4BB0F11F460FF1BC06F5FE4
:100E80007F4F8F4F9F4F16C0882311F096E911C0F6
:100E9000772321F09EE8872F762F05C0662371F017
:100EA00096E8862F70E060E02AF09A95660F771F2B
:100EB000881FDAF7880F9695879597F90895990F07
:100EC0000008550FAA0BE0E8FEEF16161706E80714
:100ED000F907C0F012161306E407F50798F0621B35
:100EE000730B840B950B39F40A2661F0232B242B0A
:100EF000252B21F408950A2609F4A140A6958FEF29
:100F0000811D811D089597F99F6780E870E060E07A
:100F100008959FEF80EC089500240A941616170692
:100F200018060906089500240A94121613061406DA
:100F300005060895092E0394000C11F4882352F03D
:100F4000BB0F40F4BF2B11F460FF04C06F5F7F4FF5
:100F50008F4F9F4F089557FD9058440F551F59F0DC
:100F60005F3F71F04795880F97FB991F61F09F3F96
:100F700079F087950895121613061406551FF2CFBF
:100F80004695F1DF08C0161617061806991FF1CF0F
:100F900086957105610508940895E894BB27662736
:100FA0007727CB0197F908950E945F0708F48FEF28
:100FB00008950E94EC070C949A070E948C0738F061
:100FC0000E94930720F0952311F00C9483070C9452
:100FD000890711240C94CE070E94AB0770F3959FEC
:100FE000C1F3950F50E0551F629FF001729FBB2720
:100FF000F00DB11D639FAA27F00DB11DAA1F649FBC
:101000006627B00DA11D661F829F2227B00DA11D6E
:10101000621F739FB00DA11D621F839FA00D611DF4
:10102000221F749F3327A00D611D231F849F600D15
:10103000211D822F762F6A2F11249F5750409AF03E
:10104000F1F088234AF0EE0FFF1FBB1F661F771FCA
:10105000881F91505040A9F79E3F510580F00C9495
:1010600083070C94CE075F3FE4F3983ED4F3869554
:1010700077956795B795F795E7959F5FC1F7FE2B35
:10108000880F911D9695879597F90895FC018827FB
:101090009927E89421912032E9F3293010F02E307D
:1010A000C8F32B3241F02D3239F4689404C00E9409
:1010B000BA08820F911D219120532A30C0F31EF4EB
:1010C000909581959F4F08950F931F93CF93DF9332
:1010D0008C01FC0101900020E9F7CF01801B910BEE
:1010E0000E94D30AEC01009719F0B8010E948C0805
:1010F000CE01DF91CF911F910F91089542E451E00D
:101100000E9493080895FB01DC018D9101908019E4
:101110000110D9F3990B0895FB01DC0101900D92A8
:101120000020E1F70895FA01A191B081009719F428
:101130001097E1F0CD01DC01CD010D90002011F4FC
:10114000C00113C0FB012191222319F02015D9F70A
:10115000F3CFFB012191201519F41E92119606C0C0
:101160002223C1F70D900020A1F7D001FA01A1932D
:10117000B08308957AE0979F902D879F802D910DE1
:1011800011240895AEE0B0E0E8ECF8E00C94B20C65
:101190000D891E898F89988D26E02C831A830983F7
:1011A00097FF02C080E090E801979E838D83AE0197
:1011B000455E5F4F698D7A8DCE0101960E94F208DF
:1011C0004D815E8157FD0AC02F8138854217530734
:1011D0000CF49A01F801E20FF31F10822E96E4E05E
:1011E0000C94CE0CABE0B0E0E8EFF8E00C94A40C6B
:1011F0006C017B018A01FC0117821682838181FFC9
:10120000CCC1CE0101963C01F6019381F70193FD1B
:10121000859193FF81917F01882309F4BAC18532BA
:1012200039F493FD859193FF81917F01853229F4F3
:10123000B60190E00E940A0CE7CF912C212C312CB2
:10124000FFE1F315D8F08B3279F038F4803279F081
:101250008332A1F4232D20611DC08D3261F08033D3
:1012600069F4232D216016C0832D8260382EE32D72
:10127000E4603E2E2AC0F32DF8601DC037FC2DC05F
:1012800020ED280F2A3040F08E32B9F436FC81C1AF
:10129000232D2064322E19C036FE06C08AE0989EA7
:1012A000200D1124922E11C0EAE02E9E200D112453
:1012B000222EF32DF0623F2E08C08C3621F4832DB0
:1012C0008068382E02C0883641F4F70193FD85917D
:1012D00093FF81917F018111B3CF982F9F7D95540A
:1012E000933028F40C5F1F4F9FE399830DC0833622
:1012F00031F0833771F0833509F059C021C0F8010E
:10130000808189830E5F1F4F88248394912C530121
:1013100013C02801F2E04F0E511CF801A080B180EB
:1013200036FE03C0692D70E002C06FEF7FEFC5018C
:101330000E94FF0B4C018201F32DFF773F2E16C058
:10134000280122E0420E511CF801A080B18036FE37
:1013500003C0692D70E002C06FEF7FEFC5010E94EE
:10136000F40B4C01F32DF0683F2E820133FC1BC0BF
:10137000822D90E088169906B0F4B60180E290E0E4
:101380000E940A0C2A94F4CFF50137FC859137FEB0
:1013900081915F01B60190E00E940A0C21102A940D
:1013A00021E0821A91088114910471F7E8C0843613
:1013B00011F0893641F5F80137FE07C0608171816F
:1013C000828193810C5F1F4F08C060817181072E5D
:1013D000000C880B990B0E5F1F4FF32DFF763F2EED
:1013E00097FF09C090958095709561957F4F8F4FBD
:1013F0009F4FF0683F2E2AE030E0A3010E94460C88
:10140000882E861845C0853731F4232D2F7EB22EC5
:101410002AE030E025C0932D997FB92E8F36C1F098
:1014200018F4883579F0B5C0803719F0883721F085
:10143000B0C0E92FE061BE2EB4FE0DC0FB2DF460FC
:10144000BF2E09C034FE0AC0292F2660B22E06C066
:1014500028E030E005C020E130E002C020E132E0C9
:10146000F801B7FE07C060817181828193810C5FB2
:101470001F4F06C06081718180E090E00E5F1F4FBA
:10148000A3010E94460C882E8618FB2DFF773F2E65
:1014900036FE0DC0232D2E7FA22E891458F434FE63
:1014A0000BC032FC09C0832D8E7EA82E05C0B82C3F
:1014B000A32C03C0B82C01C0B92CA4FE0FC0FE01A0
:1014C000E80DF11D8081803321F49A2D997EA92E9B
:1014D00009C0A2FE06C0B394B39404C08A2D8678D6
:1014E00009F0B394A3FC11C0A0FE06C0B21488F4A6
:1014F000280C922C9B180EC0B21460F4B60180E246
:1015000090E00E940A0CB394F7CFB21418F42B1891
:1015100002C0982C212CA4FE10C0B60180E390E0FC
:101520000E940A0CA2FE17C0A1FC03C088E790E04D
:1015300002C088E590E0B6010CC08A2D867859F08B
:10154000A1FE02C08BE201C080E2A7FC8DE2B601E1
:1015500090E00E940A0C891438F4B60180E390E010
:101560000E940A0C9A94F7CF8A94F301E80DF11DBA
:101570008081B60190E00E940A0C8110F5CF2220F4
:1015800009F442CEB60180E290E00E940A0C2A944F
:10159000F6CFF6018681978102C08FEF9FEF2B96E1
:1015A000E2E10C94C00C0F931F93CF93DF93823032
:1015B000910510F482E090E0E091C401F091C50142
:1015C00020E030E0A0E0B0E0309719F14081518197
:1015D0000281138148175907C8F08417950769F4E9
:1015E000109731F012960C93129713961C9327C004
:1015F0000093C4011093C50122C02115310519F0D3
:101600004217530718F49A01BD01EF01DF01F801F9
:10161000DBCF21153105F9F0281B390B24303105BA
:1016200080F48A819B816115710521F0FB01938310
:10163000828304C09093C5018093C401FE01329659
:1016400044C0FE01E20FF31F8193919322503109B0
:10165000398328833AC02091C2013091C301232BE2
:1016600041F420910201309103013093C301209392
:10167000C20120910001309101012115310541F491
:101680002DB73EB74091040150910501241B350B45
:10169000E091C201F091C301E217F307A0F42E1B01
:1016A0003F0B2817390778F0AC014E5F5F4F2417C6
:1016B000350748F04E0F5F1F5093C3014093C2019E
:1016C0008193919302C0E0E0F0E0CF01DF91CF91F0
:1016D0001F910F910895CF93DF93009709F481C074
:1016E000FC01329713821282A091C401B091C5010E
:1016F000109781F420813181820F931F2091C201C4
:101700003091C3012817390751F5F093C301E093D5
:10171000C20167C0ED0120E030E0CE17DF0740F4E2
:101720004A815B819E0141155105F1F0EA01F5CF37
:10173000D383C28340815181840F951FC817D90775
:1017400059F488819981840F951F02969183808333
:101750008A819B81938382832115310529F4F0933B
:10176000C501E093C4013DC0E901FB83EA834991CF
:101770005991C40FD51FEC17FD0761F48081918149
:10178000840F951F0296E901998388838281938152
:101790009B838A83E0E0F0E012968D919C911397F1
:1017A000009719F0FD01DC01F7CF8D919C91119705
:1017B0009D012E5F3F4F820F931F2091C2013091F8
:1017C000C3012817390769F4309729F41092C5012D
:1017D0001092C40102C013821282B093C301A0937D
:1017E000C201DF91CF910895FC01059061507040D6
:1017F0000110D8F7809590958E0F9F1F0895FC01DA
:101800006150704001900110D8F7809590958E0F2F
:101810009F1F08950F931F93CF93DF93FB012381A5
:1018200021FD03C08FEF9FEF2CC022FF16C0468121
:101830005781248135814217530744F4A081B18137
:101840009D012F5F3F4F318320838C932681378109
:101850002F5F3F4F3783268314C08B01EC01FB01C0
:101860000084F185E02D0995892BE1F6D8011696C3
:101870008D919C911797019617969C938E9316972E
:10188000CE01DF91CF911F910F910895FA01AA2700
:10189000283051F1203181F1E8946F936E7F6E5FB3
:1018A0007F4F8F4F9F4FAF4FB1E03ED0B4E03CD061
:1018B000670F781F891F9A1FA11D680F791F8A1F44
:1018C000911DA11D6A0F711D811D911DA11D20D0AB
:1018D00009F468943F912AE0269F11243019305D65
:1018E0003193DEF6CF010895462F4770405D419356
:1018F000B3E00FD0C9F7F6CF462F4F70405D4A33A3
:1019000018F0495D31FD4052419302D0A9F7EACF6A
:10191000B4E0A6959795879577956795BA95C9F799
:1019200000976105710508959B01AC010A2E06948C
:101930005795479537952795BA95C9F7620F731F45
:10194000841F951FA01D08952F923F924F925F9282
:101950006F927F928F929F92AF92BF92CF92DF92BF
:10196000EF92FF920F931F93CF93DF93CDB7DEB724
:10197000CA1BDB0B0FB6F894DEBF0FBECDBF0994B8
:101980002A88398848885F846E847D848C849B840F
:10199000AA84B984C884DF80EE80FD800C811B811D
:1019A000AA81B981CE0FD11D0FB6F894DEBF0FBE4C
:0A19B000CDBFED010895F894FFCFBC
:1019BA000000C6012000B0044100460030015B254A
:1019CA00753D25755D7B2278223A25642C22792281
:1019DA003A25642C2272223A25647D0A003A004B89
:1019EA0070004B69004B6400526566580052656688
:0219FA00590092
:00000001FF
