S00B000066736D2E73726563D3
S11300000C9434000C9488000C9451000C9451000E
S11300100C9451000C9451000C9451000C94510018
S11300200C9451000C9451000C9451000C94510008
S11300300C9451000C9451000C94A9000C945100A0
S11300400C9451000C9451000C9451000C945100E8
S11300500C9451000C9451000C9451000C945100D8
S11300600C9451000C94510011241FBECFEFD8E022
S1130070DEBFCDBF11E0A0E0B1E0EEE3F4E102C0E9
S113008005900D92A633B107D9F721E0A6E3B1E0BC
S113009001C01D92A83BB207E1F70E9429030C940A
S11300A01D0A0C94000080E480937C0087E8809310
S11300B07A0008958770ECE7F0E09081987F892BAF
S11300C08083EAE7F0E080818064808380917A0015
S11300D086FDFCCF8091780090917900089584B1D9
S11300E0866084B982EA809380008AE180938100EB
S11300F08FE39CE990938700809386000895909302
S113010089008093880070938B0060938A0008951F
S11301101F920F920FB60F9211248F93EF93FF93B8
S113012010925A0110925D0110925B0110925901D4
S113013016BC82E085BBEEE6F0E0808182608083BD
S11301401DBAFF91EF918F910F900FBE0F901F90EA
S113015018951F920F920FB60F9211242F938F931D
S11301609F93EF93FF9380915901811104C08F5F96
S11301708093590139C020915A0129307CF0EEE670
S1130180F0E080818D7F80831092580181E080931C
S11301905C018CBB8DB381608DBB26C089B183FBB0
S11301A0882780F98093580190E0022E02C0880FBE
S11301B0991F0A94E2F790915D01892B80935D0168
S11301C089B1829581708093570190E0022E02C01C
S11301D0880F991F0A94E2F790915B01892B809311
S11301E05B012F5F20935A01FF91EF919F918F91B3
S11301F02F910F900FBE0F901F901895E9E6F0E035
S113020010821DBA8081836080838DB381608DBB31
S1130210089582E084BD85BD83E687BD08954F922D
S11302205F926F927F928F929F92AF92BF92CF9282
S1130230DF92EF92FF920F931F93CF93DF93CDB78B
S1130240DEB7C654D1090FB6F894DEBF0FBECDBFDA
S1130250D62E2BAB3CAB4DAB5EAB682F70E080E091
S113026090E00E94030620E030E040E05EE30E945C
S1130270B80620E030E040E751E40E9459056BAF36
S11302807CAF8DAF9EAF6D2D70E071956195710956
S1130290072E000C880B990B0E94030620E030E027
S11302A040E05EE30E94B80620E030E040E751E41D
S11302B00E945A052B013C012BAD3CAD4DAD5EAD0A
S11302C06BA97CA98DA99EA90E94590523966CAFA0
S11302D07DAF8EAF9FAF2397A3019201C801B701F1
S11302E00E94590527966CAF7DAF8EAF9FAF2797BD
S11302F023E333E343E35FE323966CAD7DAD8EAD3F
S11303009FAD23970E94B8066BAB7CAB8DAB9EABC5
S113031023E333E343E35FE327966CAD7DAD8EAD1A
S11303209FAD27970E94B8066FAB78AF89AF9AAF9D
S11303302BAD3CAD4DAD5EAD60914B0170914C0168
S113034080914D0190914E010E94590520E030E0CA
S113035040E451E40E94B8064B015C016093430100
S1130360709344018093450190934601A301920147
S113037060914701709148018091490190914A012F
S11303800E94590520E030E040E451E40E94B806A0
S11303906B017C0160933F017093400180934101A4
S11303A090934201A50194016BA97CA98DA99EA9F2
S11303B00E945A058090530190905401A0905501D9
S11303C0B0905601A50194010E945A056BAB7CAB19
S11303D08DAB9EABA70196016FA978AD89AD9AAD9F
S11303E00E945A05C0904F01D0905001E0905101F5
S11303F0F0905201A70196010E945A056FAB78AFA5
S113040089AF9AAF20E030E044EB52EC6BA97CA9B1
S11304108DA99EA90E94B3061816D4F520E030E0F9
S113042044EB52E46BA97CA98DA99EA90E94C60540
S1130430882374F52AE037ED43EA5BE323966CAD39
S11304407DAD8EAD9FAD23970E94B8069B01AC0194
S1130450C501B4010E945A0560935301709354017D
S1130460809355019093560120E030E040EB51E435
S11304706BA97CA98DA99EA90E94B80620E030E84A
S11304804BE355E40E945A050E94D2058B0111C02A
S113049020E030E044EB52EC6BA97CA98DA99EA925
S11304A00E94C60518161CF008E813E102C008EE05
S11304B013E08BAD9CADADADBEAD80934B0190937D
S11304C04C01A0934D01B0934E0120E030E044EB89
S11304D052EC6FA978AD89AD9AAD0E94B306181697
S11304E0D4F520E030E044EB52E46FA978AD89AD57
S11304F09AAD0E94C605882374F52AE037ED43EAD5
S11305005BE327966CAD7DAD8EAD9FAD27970E94C2
S1130510B8069B01AC01C701B6010E945A0560935D
S11305204F0170935001809351019093520120E048
S113053030E040EB51EC6FA978AD89AD9AAD0E94E3
S1130540B80620E030E84BE355E40E945A050E94C7
S1130550D2057B0119C020E030E044EB52EC6FA9D6
S113056078AD89AD9AAD0E94C60518163CF00F2EE1
S1130570F8E8EF2EF3E1FF2EF02D06C00F2EF8EE73
S1130580EF2EF3E0FF2EF02D4092470150924801E8
S11305906092490170924A0120E030E044EB52E459
S11305A06BA97CA98DA99EA90E945A050E94CB051E
S11305B0D62EC72E20E030E044EB52E46FA978AD8C
S11305C089AD9AAD0E945A050E94CB05B62EA72E7E
S11305D0B701C8010E947F001F928DE08F93809124
S11305E05B011F928F9380915D011F928F93AF9255
S11305F0BF92CF92DF9282E091E09F938F931F92FC
S113060082E38F938E010F5F1F4F1F930F930E94FE
S11306102507C8010E9440050FB6F894DEBF0FBE3F
S1130620CDBFCA5BDF4F0FB6F894DEBF0FBECDBFA0
S1130630DF91CF911F910F91FF90EF90DF90CF90BA
S1130640BF90AF909F908F907F906F905F904F90EE
S113065008950E946F000E94530087E690E00E9474
S11306602E050E9409010E94FE0084B1877F84B98F
S113067084B1806284B985B18F7D85B985B1886084
S113068085B98AB1837E8AB98AB180628AB98AB10E
S113069080648AB98BB184608BB98BB188608BB963
S11306A08BB180618BB978940E944D05892B51F0F0
S11306B00E945205809300018D3421F40E9452055A
S11306C08093010180915C01813009F04AC08091DE
S11306D05D018F3F29F080915B018F3F09F041C09C
S11306E010925C0168EB7BE088EB9BE00E947F004A
S11306F01092530110925401109255011092560118
S113070010924F0110925001109251011092520117
S11307101F928DE08F9380915B011F928F93809144
S11307205D011F928F931F928AE58F931F928F937F
S113073082E091E09F938F931F9286E48F9380E7EA
S113074091E09F938F930E94250780E791E00E9498
S113075040058DB79EB740960FB6F8949EBF0FBE66
S11307608DBF80913601813009F4C1C020F0823000
S113077009F413C199CF80E00E945A00099690931E
S113078069018093680181E00E945A00EC01909312
S11307906B0180936A01609168017091690180E046
S11307A090E00E9401066B017C012BE03DE244E3F2
S11307B05EE30E94B8060E94CB057093B701609374
S11307C0B601BE0180E090E00E9401064B015C018D
S11307D02BE03DE244E35EE30E94B8060E94CB05B1
S11307E0709367016093660120E93EE34AEF5FE39B
S11307F0C701B6010E94B80620E030E04AEF54E495
S11308000E945A050E94CB056B017C0170936F0115
S113081060936E0120E93EE34AEF5FE3C501B40152
S11308200E94B80620E030E04AEF54E40E945A05E2
S11308300E94CB0570936D0160936C01C6010E9408
S11308407F00809101018033D1F481E080933601EF
S113085068EB7BE088EB9BE00E947F0010925301E1
S113086010925401109255011092560110924F01AA
S113087010925001109251011092520115CF8091A3
S11308805C01813009F010CF10925C011F928DE061
S11308908F9380915B011F928F9380915D011F92D2
S11308A08F93809167018F93809166018F938091DC
S11308B0B7018F938091B6018F9382E091E09F936B
S11308C08F931F9286E48F9380E791E09F938F9399
S11308D00E94250780E791E00E9440058DB79EB7EE
S11308E040960FB6F8949EBF0FBE8DBFDDCE8091AB
S11308F001018133C9F468EB7BE088EB9BE00E9443
S11309007F001092530110925401109255011092DD
S1130910560110924F011092500110925101109201
S1130920520110923601C0CE1B990AC082E0809316
S113093036018FE493EC0197F1F700C00000B4CEC8
S113094080915C01813009F0AFCE10925C011F925E
S11309508DE08F9380915B011F928F9380915D0155
S11309601F928F931F928AE58F931F928F9382E039
S113097091E09F938F931F9286E48F9380E791E099
S11309809F938F930E9425078DB79EB740960FB60D
S1130990F8949EBF0FBE8DBF87CE1B991FC081E008
S11309A08093360168EB7BE088EB9BE00E947F003C
S11309B01092530110925401109255011092560155
S11309C010924F0110925001109251011092520155
S11309D08FE493EC0197F1F700C0000080910101CE
S11309E08133C1F468EB7BE088EB9BE00E947F00DD
S11309F01092530110925401109255011092560115
S1130A0010924F0110925001109251011092520114
S1130A101092360180915C01813009F045CE8091BD
S1130A205D018F3F09F440CE60915B016F3F09F493
S1130A303BCE10925C01E0903701F09038010091B8
S1130A40390110913A0120913B0130913C014091D0
S1130A503D0150913E010E940F0126CE9093C500A6
S1130A608093C40088E18093C10086E08093C20033
S1130A7008959091C00095FFFCCF8093C60008951F
S1130A80CF93DF93EC0103C021960E94390588813E
S1130A908111FACFDF91CF9108958091C0008078C1
S1130AA090E008958091C0008823E4F78091C60007
S1130AB008955058BB27AA270E9471050C94790603
S1130AC00E946B0638F00E94720620F039F49F3FB2
S1130AD019F426F40C9468060EF4E095E7FB0C94E4
S1130AE06206E92F0E948A0658F3BA176207730751
S1130AF08407950720F079F4A6F50C94AC060EF45F
S1130B00E0950B2EBA2FA02D0B01B90190010C0119
S1130B10CA01A0011124FF27591B99F0593F50F431
S1130B20503E68F11A16F040A22F232F342F442789
S1130B30585FF3CF469537952795A795F040539581
S1130B40C9F77EF41F16BA0B620B730B840BBAF051
S1130B509150A1F0FF0FBB1F661F771F881FC2F7BC
S1130B600EC0BA0F621F731F841F48F487957795D0
S1130B706795B795F7959E3F08F0B0CF9395880F8A
S1130B8008F09927EE0F9795879508950E943E06E1
S1130B9008F481E008950E94D2056894B1110C9480
S1130BA0AD0608950E94920688F09F5798F0B92FD9
S1130BB09927B751B0F0E1F0660F771F881F991F8E
S1130BC01AF0BA95C9F714C0B13091F00E94AC067E
S1130BD0B1E008950C94AC06672F782F8827B85F8E
S1130BE039F0B93FCCF3869577956795B395D9F7E6
S1130BF03EF490958095709561957F4F8F4F9F4FF0
S1130C000895E89409C097FB3EF4909580957095FB
S1130C1061957F4F8F4F9F4F9923A9F0F92F96E944
S1130C20BB279395F695879577956795B795F111B9
S1130C30F8CFFAF4BB0F11F460FF1BC06F5F7F4F56
S1130C408F4F9F4F16C0882311F096E911C0772368
S1130C5021F09EE8872F762F05C0662371F096E871
S1130C60862F70E060E02AF09A95660F771F881F40
S1130C70DAF7880F9695879597F90895990F0008E4
S1130C80550FAA0BE0E8FEEF16161706E807F9075A
S1130C90C0F012161306E407F50798F0621B730BF5
S1130CA0840B950B39F40A2661F0232B242B252B76
S1130CB021F408950A2609F4A140A6958FEF811D19
S1130CC0811D089597F99F6780E870E060E00895BA
S1130CD09FEF80EC089500240A9416161706180650
S1130CE00906089500240A9412161306140605062C
S1130CF00895092E0394000C11F4882352F0BB0FBD
S1130D0040F4BF2B11F460FF04C06F5F7F4F8F4F1F
S1130D109F4F089557FD9058440F551F59F05F3F5A
S1130D2071F04795880F97FB991F61F09F3F79F009
S1130D3087950895121613061406551FF2CF46958B
S1130D40F1DF08C0161617061806991FF1CF86950D
S1130D507105610508940895E894BB2766277727F1
S1130D60CB0197F908950E943E0608F48FEF089589
S1130D700E94CB060C9479060E946B0638F00E9400
S1130D80720620F0952311F00C9462060C94680608
S1130D9011240C94AD060E948A0670F3959FC1F34A
S1130DA0950F50E0551F629FF001729FBB27F00D15
S1130DB0B11D639FAA27F00DB11DAA1F649F66276A
S1130DC0B00DA11D661F829F2227B00DA11D621FB9
S1130DD0739FB00DA11D621F839FA00D611D221F73
S1130DE0749F3327A00D611D231F849F600D211D57
S1130DF0822F762F6A2F11249F5750409AF0F1F0DA
S1130E0088234AF0EE0FFF1FBB1F661F771F881F42
S1130E1091505040A9F79E3F510580F00C94620612
S1130E200C94AD065F3FE4F3983ED4F38695779532
S1130E306795B795F795E7959F5FC1F7FE2B880FE8
S1130E40911D9695879597F90895AEE0B0E0EBE291
S1130E50F7E00C94F4090D891E898F89988D26E09A
S1130E602C831A83098397FF02C080E090E80197DE
S1130E709E838D83AE01455E5F4F698D7A8DCE0171
S1130E8001960E9455074D815E8157FD0AC02F814E
S1130E903885421753070CF49A01F801E20FF31F47
S1130EA010822E96E4E00C94100AABE0B0E0EBE57F
S1130EB0F7E00C94E6096C017B018A01FC011782BE
S1130EC01682838181FFCCC1CE0101963C01F601DB
S1130ED09381F70193FD859193FF81917F0188238D
S1130EE009F4BAC1853239F493FD859193FF819158
S1130EF07F01853229F4B60190E00E944C09E7CFC6
S1130F00912C212C312CFFE1F315D8F08B3279F0A0
S1130F1038F4803279F08332A1F4232D20611DC08E
S1130F208D3261F0803369F4232D216016C0832D46
S1130F308260382EE32DE4603E2E2AC0F32DF86043
S1130F401DC037FC2DC020ED280F2A3040F08E3212
S1130F50B9F436FC81C1232D2064322E19C036FE2B
S1130F6006C08AE0989E200D1124922E11C0EAE05A
S1130F702E9E200D1124222EF32DF0623F2E08C048
S1130F808C3621F4832D8068382E02C0883641F4D3
S1130F90F70193FD859193FF81917F018111B3CF77
S1130FA0982F9F7D9554933028F40C5F1F4F9FE337
S1130FB099830DC0833631F0833771F0833509F09E
S1130FC059C021C0F801808189830E5F1F4F882496
S1130FD08394912C530113C02801F2E04F0E511C4D
S1130FE0F801A080B18036FE03C0692D70E002C014
S1130FF06FEF7FEFC5010E9441094C018201F32D7F
S1131000FF773F2E16C0280122E0420E511CF80142
S1131010A080B18036FE03C0692D70E002C06FEF7E
S11310207FEFC5010E9436094C01F32DF0683F2E75
S1131030820133FC1BC0822D90E088169906B0F41F
S1131040B60180E290E00E944C092A94F4CFF501A5
S113105037FC859137FE81915F01B60190E00E94D3
S11310604C0921102A9421E0821A910881149104D8
S113107071F7E8C0843611F0893641F5F80137FE7E
S113108007C060817181828193810C5F1F4F08C00A
S113109060817181072E000C880B990B0E5F1F4F26
S11310A0F32DFF763F2E97FF09C09095809570959C
S11310B061957F4F8F4F9F4FF0683F2E2AE030E0BD
S11310C0A3010E948809882E861845C0853731F40B
S11310D0232D2F7EB22E2AE030E025C0932D997F58
S11310E0B92E8F36C1F018F4883579F0B5C0803741
S11310F019F0883721F0B0C0E92FE061BE2EB4FEAC
S11311000DC0FB2DF460BF2E09C034FE0AC0292F88
S11311102660B22E06C028E030E005C020E130E0B1
S113112002C020E132E0F801B7FE07C0608171819E
S1131130828193810C5F1F4F06C06081718180E0C2
S113114090E00E5F1F4FA3010E948809882E861825
S1131150FB2DFF773F2E36FE0DC0232D2E7FA22EB2
S1131160891458F434FE0BC032FC09C0832D8E7EE2
S1131170A82E05C0B82CA32C03C0B82C01C0B92CD0
S1131180A4FE0FC0FE01E80DF11D8081803321F41F
S11311909A2D997EA92E09C0A2FE06C0B394B394D9
S11311A004C08A2D867809F0B394A3FC11C0A0FE74
S11311B006C0B21488F4280C922C9B180EC0B214EA
S11311C060F4B60180E290E00E944C09B394F7CF3A
S11311D0B21418F42B1802C0982C212CA4FE10C0B1
S11311E0B60180E390E00E944C09A2FE17C0A1FC66
S11311F003C088E790E002C088E590E0B6010CC027
S11312008A2D867859F0A1FE02C08BE201C080E2EB
S1131210A7FC8DE2B60190E00E944C09891438F4D1
S1131220B60180E390E00E944C099A94F7CF8A9427
S1131230F301E80DF11D8081B60190E00E944C0994
S11312408110F5CF222009F442CEB60180E290E06D
S11312500E944C092A94F6CFF6018681978102C038
S11312608FEF9FEF2B96E2E10C94020AFC010590AC
S1131270615070400110D8F7809590958E0F9F1F94
S11312800895FC016150704001900110D8F78095D9
S113129090958E0F9F1F08950F931F93CF93DF9305
S11312A0FB01238121FD03C08FEF9FEF2CC022FFA0
S11312B016C046815781248135814217530744F46F
S11312C0A081B1819D012F5F3F4F318320838C9397
S11312D0268137812F5F3F4F3783268314C08B01CC
S11312E0EC01FB010084F185E02D0995892BE1F6E1
S11312F0D80116968D919C911797019617969C93F9
S11313008E931697CE01DF91CF911F910F9108957F
S1131310FA01AA27283051F1203181F1E8946F9322
S11313206E7F6E5F7F4F8F4F9F4FAF4FB1E03ED0C8
S1131330B4E03CD0670F781F891F9A1FA11D680F66
S1131340791F8A1F911DA11D6A0F711D811D911D99
S1131350A11D20D009F468943F912AE0269F11240E
S11313603019305D3193DEF6CF010895462F477072
S1131370405D4193B3E00FD0C9F7F6CF462F4F70CD
S1131380405D4A3318F0495D31FD4052419302D02B
S1131390A9F7EACFB4E0A6959795879577956795D1
S11313A0BA95C9F700976105710508959B01AC01D1
S11313B00A2E06945795479537952795BA95C9F7F8
S11313C0620F731F841F951FA01D08952F923F92D3
S11313D04F925F926F927F928F929F92AF92BF9241
S11313E0CF92DF92EF92FF920F931F93CF93DF93ED
S11313F0CDB7DEB7CA1BDB0B0FB6F894DEBF0FBE4A
S1131400CDBF09942A88398848885F846E847D8496
S11314108C849B84AA84B984C884DF80EE80FD8098
S11314200C811B81AA81B981CE0FD11D0FB6F8940E
S1111430DEBF0FBECDBFED010895F894FFCFCF
S113143E30015B25753D25755D7B2278223A256446
S113144E2C2279223A25642C2272223A25647D0AB2
S113145E003A004B70004B69004B640052656658AD
S109146E005265665900FE
S9030000FC
