:100000000C9434000C9488000C9451000C94510012
:100010000C9451000C9451000C9451000C9451001C
:100020000C9451000C9451000C9451000C9451000C
:100030000C9451000C9451000C94A9000C945100A4
:100040000C9451000C9451000C9451000C945100EC
:100050000C9451000C9451000C9451000C945100DC
:100060000C9451000C94510011241FBECFEFD8E026
:10007000DEBFCDBF11E0A0E0B1E0EAE9F3E102C0EC
:1000800005900D92A032B107D9F721E0A0E2B1E0CE
:1000900001C01D92AF33B207E1F70E9438030C9400
:1000A000CB090C94000080E480937C0087E8809367
:1000B0007A0008958770ECE7F0E09081987F892BB3
:1000C0008083EAE7F0E080818064808380917A0019
:1000D00086FDFCCF8091780090917900089584B1DD
:1000E000866084B982EA809380008AE180938100EF
:1000F0008FE39CE990938700809386000895909306
:1001000089008093880070938B0060938A00089523
:100110001F920F920FB60F9211248F93EF93FF93BC
:1001200010923B0110923E0110923C0110923A0154
:1001300016BC82E085BBEEE6F0E0808182608083C1
:100140001DBAFF91EF918F910F900FBE0F901F90EE
:1001500018951F920F920FB60F9211242F938F9321
:100160009F93EF93FF9380913A01811104C08F5FB9
:1001700080933A0139C020913B0129307CF0EEE6B2
:10018000F0E080818D7F80831092390181E080933F
:100190003D018CBB8DB381608DBB26C089B183FBD3
:1001A000882780F98093390190E0022E02C0880FE1
:1001B000991F0A94E2F790913E01892B80933E01AA
:1001C00089B1829581708093380190E0022E02C03F
:1001D000880F991F0A94E2F790913C01892B809334
:1001E0003C012F5F20933B01FF91EF919F918F91F5
:1001F0002F910F900FBE0F901F901895E9E6F0E039
:1002000010821DBA8081836080838DB381608DBB35
:10021000089582E084BD85BD83E687BD08954F9231
:100220005F926F927F928F929F92AF92BF92CF9286
:10023000DF92EF92FF920F931F93CF93DF93CDB78F
:10024000DEB7CA54D1090FB6F894DEBF0FBECDBFDA
:10025000F62E8A01682F70E080E090E00E94B105E0
:1002600020E030E040E05EE30E94660620E030E0FF
:1002700040E751E40E9407056BAF7CAF8DAF9EAFA6
:100280006F2D70E0719561957109072E000C880B38
:10029000990B0E94B10520E030E040E05EE30E944F
:1002A000660620E030E040E751E40E9408052B019B
:1002B0003C01B801110F880B990B0E94B1056B012D
:1002C0007C012BAD3CAD4DAD5EAD0E940705239684
:1002D0006CAF7DAF8EAF9FAF2397A3019201C70193
:1002E000B6010E9407052B966CAF7DAF8EAF9FAF16
:1002F0002B9723E333E343E35FE323966CAD7DADBC
:100300008EAD9FAD23970E9466066BAB7CAB8DAB29
:100310009EAB23E333E343E35FE32B966CAD7DAD0C
:100320008EAD9FAD2B970E9466066FAB78AF89AFFD
:100330009AAF2BAD3CAD4DAD5EAD60912C0170918F
:100340002D0180912E0190912F010E94070520E040
:1003500030E040E451E40E9466064B015C0160938A
:100360002401709325018093260190932701A30116
:100370009201609128017091290180912A01909148
:100380002B010E94070520E030E040E451E40E9488
:1003900066066B017C0160932001709321018093BC
:1003A0002201909323018091340190913501A09115
:1003B0003601B091370127968CAF9DAFAEAFBFAF7E
:1003C00027979C01AD016BA97CA98DA99EA90E94CC
:1003D00008059B01AC01C501B4010E9408056BAB87
:1003E0007CAB8DAB9EAB8090300190903101A090A2
:1003F0003201B0903301A50194016FA978AD89ADA8
:100400009AAD0E9408059B01AC01C701B6010E948C
:1004100008056FAB78AF89AF9AAF20E030E044EBCE
:1004200052EC6BA97CA98DA99EA90E9461061816A1
:10043000F4F520E030E044EB52E46BA97CA98DA9EF
:100440009EA90E947405882394F52AE037ED43EABB
:100450005BE323966CAD7DAD8EAD9FAD23970E947F
:1004600066069B01AC0127966CAD7DAD8EAD9FAD50
:1004700027970E940805609334017093350180939B
:1004800036019093370120E030E040EB51EC6BA94E
:100490007CA98DA99EA90E94660620E030E84BE366
:1004A00055E40E9408050E9480058B0111C020E0E0
:1004B00030E044EB52EC6BA97CA98DA99EA90E9467
:1004C000740518161CF008E813E102C008EE13E0EA
:1004D0008BAD9CADADADBEAD80932C0190932D0145
:1004E000A0932E01B0932F0120E030E044EB52ECBA
:1004F0006FA978AD89AD9AAD0E9461061816D4F542
:1005000020E030E044EB52E46FA978AD89AD9AADBC
:100510000E947405882374F52AE037ED43EA5BE313
:100520002B966CAD7DAD8EAD9FAD2B970E94660670
:100530009B01AC01C501B4010E9408056093300124
:1005400070933101809332019093330120E030E0C9
:1005500040EB51EC6FA978AD89AD9AAD0E9466066B
:1005600020E030E84BE355E40E9408050E94800536
:100570007B0119C020E030E044EB52EC6FA978AD6C
:1005800089AD9AAD0E94740518163CF00F2EF8E85C
:10059000EF2EF3E1FF2EF02D06C00F2EF8EEEF2E1A
:1005A000F3E0FF2EF02D4092280150922901609235
:1005B0002A0170922B0120E030E044EB52E46BA959
:1005C0007CA98DA99EA90E9408050E947905D62EB6
:1005D000C72E20E030E044EB52E46FA978AD89AD3E
:1005E0009AAD0E9408050E947905B62EA72EB70184
:1005F000C8010E947F001F928DE08F9380913C0183
:100600001F928F9380913E011F928F93AF92BF9262
:10061000CF92DF9280E091E09F938F931F9282E3CD
:100620008F938E010F5F1F4F1F930F930E94D3066E
:10063000C8010E94EE040FB6F894DEBF0FBECDBF16
:10064000C65BDF4F0FB6F894DEBF0FBECDBFDF91A4
:10065000CF911F910F91FF90EF90DF90CF90BF90BF
:10066000AF909F908F907F906F905F904F90089584
:10067000CF93DF93CDB7DEB7E2970FB6F894DEBF26
:100680000FBECDBF0E946F000E94530087E690E02E
:100690000E94DC040E9409010E94FE0084B1877F51
:1006A00084B984B1806284B985B18F7D85B985B103
:1006B000886085B98AB1837E8AB98AB180628AB935
:1006C0008AB180648AB98BB184608BB98BB1886040
:1006D0008BB98BB180618BB9789400E010E00E94F7
:1006E000FB04892B19F00E940005182F113309F023
:1006F00086C080E00E945A0009966C0181E00E9449
:100700005A007C01B60180E090E00E94AF054B01E9
:100710005C012BE03DE244E35EE30E9466060E943A
:100720007905062FD72EB70180E090E00E94AF0533
:100730002B013C012BE03DE244E35EE30E946606B0
:100740000E947905F62EE72E20E93EE34AEF5FE3AB
:10075000C501B4010E94660620E030E04AEF54E48F
:100760000E9408050E9479054B015C0120E93EE3E7
:100770004AEF5FE3C301B2010E94660620E030E069
:100780004AEF54E40E9408050E947905C4010E94C2
:100790007F0080913D01813039F510923D011F921B
:1007A0008DE08F9380913C011F928F9380913E0149
:1007B0001F928F93EF92FF92DF920F9380E091E070
:1007C0009F938F931F9282E38F93CE0101967C01BA
:1007D0009F938F930E94D306C7010E94EE040FB629
:1007E000F894DEBF0FBECDBF9FE926E881E09150AF
:1007F00020408040E1F700C0000000E070CF809111
:100800003D01813009F06BCF10923D0180913E0196
:100810008F3F09F041C090913C019F3FE9F568EBA3
:100820007BE088EB9BE00E947F00109234011092E5
:10083000350110923601109237011092300110925A
:10084000310110923201109233011F928DE08F938B
:1008500080913C011F928F9380913E011F928F9354
:100860001F928AE58F931F928F9380E091E09F9370
:100870008F931F9282E38F93CE0101967C019F9309
:100880008F930E94D306C7010E94EE040FB6F8941E
:10089000DEBF0FBECDBF23CF1B9948C0011108C0DA
:1008A00040E050E060913C010E940F0101E017CF51
:1008B00068EB7BE088EB9BE00E947F0010923401A4
:1008C00010923501109236011092370110923001CA
:1008D0001092310110923201109233011F928DE07B
:1008E0008F9380913C011F928F9380913E011F92C4
:1008F0008F931F928AE58F931F928F9380E091E0F0
:100900009F938F931F9282E38F93CE0101967C0178
:100910009F938F930E94D306C7010E94EE040FB6E7
:10092000F894DEBF0FBECDBF00E0D9CE013039F460
:1009300040E050E060913C010E940F01D0CE68EB96
:100940007BE088EB9BE00E947F00109234011092C4
:100950003501109236011092370110923001109239
:10096000310110923201109233011F928DE08F936A
:1009700080913C011F928F9380913E011F928F9333
:100980001F928AE58F931F928F9380E091E09F934F
:100990008F931F9282E38F93CE0101967C019F93E8
:1009A0008F930E94D306C7010E94EE040FB6F894FD
:1009B000DEBF0FBECDBF93CE9093C5008093C40021
:1009C00088E18093C10086E08093C20008959091F1
:1009D000C00095FFFCCF8093C6000895CF93DF93AE
:1009E000EC0103C021960E94E70488818111FACFAF
:1009F000DF91CF9108958091C000807890E00895B4
:100A00008091C0008823E4F78091C6000895505873
:100A1000BB27AA270E941F050C9427060E941906CF
:100A200038F00E94200620F039F49F3F19F426F494
:100A30000C9416060EF4E095E7FB0C941006E92FD3
:100A40000E94380658F3BA176207730784079507A0
:100A500020F079F4A6F50C945A060EF4E0950B2ECE
:100A6000BA2FA02D0B01B90190010C01CA01A00100
:100A70001124FF27591B99F0593F50F4503E68F15B
:100A80001A16F040A22F232F342F4427585FF3CF9C
:100A9000469537952795A795F0405395C9F77EF46D
:100AA0001F16BA0B620B730B840BBAF09150A1F0B6
:100AB000FF0FBB1F661F771F881FC2F70EC0BA0F3C
:100AC000621F731F841F48F4879577956795B795C4
:100AD000F7959E3F08F0B0CF9395880F08F09927BF
:100AE000EE0F9795879508950E94EC0508F481E034
:100AF00008950E9480056894B1110C945B060895D6
:100B00000E94400688F09F5798F0B92F9927B75157
:100B1000B0F0E1F0660F771F881F991F1AF0BA95A1
:100B2000C9F714C0B13091F00E945A06B1E008959F
:100B30000C945A06672F782F8827B85F39F0B93F91
:100B4000CCF3869577956795B395D9F73EF4909554
:100B50008095709561957F4F8F4F9F4F0895E894D2
:100B600009C097FB3EF490958095709561957F4FF5
:100B70008F4F9F4F9923A9F0F92F96E9BB279395A3
:100B8000F695879577956795B795F111F8CFFAF4B3
:100B9000BB0F11F460FF1BC06F5F7F4F8F4F9F4FE4
:100BA00016C0882311F096E911C0772321F09EE842
:100BB000872F762F05C0662371F096E8862F70E0A8
:100BC00060E02AF09A95660F771F881FDAF7880F82
:100BD0009695879597F90895990F0008550FAA0BD8
:100BE000E0E8FEEF16161706E807F907C0F0121640
:100BF0001306E407F50798F0621B730B840B950B43
:100C000039F40A2661F0232B242B252B21F4089597
:100C10000A2609F4A140A6958FEF811D811D089534
:100C200097F99F6780E870E060E008959FEF80EC9F
:100C3000089500240A941616170618060906089542
:100C400000240A9412161306140605060895092EA8
:100C50000394000C11F4882352F0BB0F40F4BF2B17
:100C600011F460FF04C06F5F7F4F8F4F9F4F089557
:100C700057FD9058440F551F59F05F3F71F047954D
:100C8000880F97FB991F61F09F3F79F08795089532
:100C9000121613061406551FF2CF4695F1DF08C051
:100CA000161617061806991FF1CF8695710561056E
:100CB00008940895E894BB2766277727CB0197F916
:100CC00008950E94EC0508F48FEF08950E947906BC
:100CD0000C9427060E94190638F00E94200620F086
:100CE000952311F00C9410060C94160611240C9404
:100CF0005B060E94380670F3959FC1F3950F50E094
:100D0000551F629FF001729FBB27F00DB11D639FBD
:100D1000AA27F00DB11DAA1F649F6627B00DA11D63
:100D2000661F829F2227B00DA11D621F739FB00D09
:100D3000A11D621F839FA00D611D221F749F332779
:100D4000A00D611D231F849F600D211D822F762F12
:100D50006A2F11249F5750409AF0F1F088234AF0EF
:100D6000EE0FFF1FBB1F661F771F881F915050405B
:100D7000A9F79E3F510580F00C9410060C945B0679
:100D80005F3FE4F3983ED4F3869577956795B795E2
:100D9000F795E7959F5FC1F7FE2B880F911D9695FC
:100DA000879597F90895AEE0B0E0E9EDF6E00C9490
:100DB000A2090D891E898F89988D26E02C831A83BC
:100DC000098397FF02C080E090E801979E838D839E
:100DD000AE01455E5F4F698D7A8DCE0101960E940E
:100DE00003074D815E8157FD0AC02F813885421768
:100DF00053070CF49A01F801E20FF31F10822E96AC
:100E0000E4E00C94BE09ABE0B0E0E9E0F7E00C945C
:100E100094096C017B018A01FC011782168283818F
:100E200081FFCCC1CE0101963C01F6019381F7010F
:100E300093FD859193FF81917F01882309F4BAC1C5
:100E4000853239F493FD859193FF81917F0185323D
:100E500029F4B60190E00E94FA08E7CF912C212CEA
:100E6000312CFFE1F315D8F08B3279F038F4803271
:100E700079F08332A1F4232D20611DC08D3261F001
:100E8000803369F4232D216016C0832D8260382EB3
:100E9000E32DE4603E2E2AC0F32DF8601DC037FC20
:100EA0002DC020ED280F2A3040F08E32B9F436FCE8
:100EB00081C1232D2064322E19C036FE06C08AE07F
:100EC000989E200D1124922E11C0EAE02E9E200D36
:100ED0001124222EF32DF0623F2E08C08C3621F40F
:100EE000832D8068382E02C0883641F4F70193FDC7
:100EF000859193FF81917F018111B3CF982F9F7DC1
:100F00009554933028F40C5F1F4F9FE399830DC0D5
:100F1000833631F0833771F0833509F059C021C031
:100F2000F801808189830E5F1F4F88248394912C60
:100F3000530113C02801F2E04F0E511CF801A080AC
:100F4000B18036FE03C0692D70E002C06FEF7FEF05
:100F5000C5010E94EF084C018201F32DFF773F2E5F
:100F600016C0280122E0420E511CF801A080B18079
:100F700036FE03C0692D70E002C06FEF7FEFC50140
:100F80000E94E4084C01F32DF0683F2E820133FCEF
:100F90001BC0822D90E088169906B0F4B60180E25D
:100FA00090E00E94FA082A94F4CFF50137FC85916D
:100FB00037FE81915F01B60190E00E94FA0821108E
:100FC0002A9421E0821A91088114910471F7E8C0F3
:100FD000843611F0893641F5F80137FE07C060818B
:100FE0007181828193810C5F1F4F08C06081718184
:100FF000072E000C880B990B0E5F1F4FF32DFF7609
:101000003F2E97FF09C090958095709561957F4F11
:101010008F4F9F4FF0683F2E2AE030E0A3010E94DF
:101020003609882E861845C0853731F4232D2F7E4A
:10103000B22E2AE030E025C0932D997FB92E8F364D
:10104000C1F018F4883579F0B5C0803719F08837C9
:1010500021F0B0C0E92FE061BE2EB4FE0DC0FB2D23
:10106000F460BF2E09C034FE0AC0292F2660B22EBC
:1010700006C028E030E005C020E130E002C020E1F9
:1010800032E0F801B7FE07C06081718182819381EF
:101090000C5F1F4F06C06081718180E090E00E5FA1
:1010A0001F4FA3010E943609882E8618FB2DFF775B
:1010B0003F2E36FE0DC0232D2E7FA22E891458F40C
:1010C00034FE0BC032FC09C0832D8E7EA82E05C0D5
:1010D000B82CA32C03C0B82C01C0B92CA4FE0FC09F
:1010E000FE01E80DF11D8081803321F49A2D997E57
:1010F000A92E09C0A2FE06C0B394B39404C08A2DE1
:10110000867809F0B394A3FC11C0A0FE06C0B21407
:1011100088F4280C922C9B180EC0B21460F4B6010F
:1011200080E290E00E94FA08B394F7CFB21418F46A
:101130002B1802C0982C212CA4FE10C0B60180E30D
:1011400090E00E94FA08A2FE17C0A1FC03C088E745
:1011500090E002C088E590E0B6010CC08A2D867848
:1011600059F0A1FE02C08BE201C080E2A7FC8DE233
:10117000B60190E00E94FA08891438F4B60180E3C1
:1011800090E00E94FA089A94F7CF8A94F301E80D50
:10119000F11D8081B60190E00E94FA088110F5CF20
:1011A000222009F442CEB60180E290E00E94FA08C3
:1011B0002A94F6CFF6018681978102C08FEF9FEFC8
:1011C0002B96E2E10C94B009FC010590615070404F
:1011D0000110D8F7809590958E0F9F1F0895FC0100
:1011E0006150704001900110D8F7809590958E0F56
:1011F0009F1F08950F931F93CF93DF93FB012381CC
:1012000021FD03C08FEF9FEF2CC022FF16C0468147
:101210005781248135814217530744F4A081B1815D
:101220009D012F5F3F4F318320838C93268137812F
:101230002F5F3F4F3783268314C08B01EC01FB01E6
:101240000084F185E02D0995892BE1F6D8011696E9
:101250008D919C911797019617969C938E93169754
:10126000CE01DF91CF911F910F910895FA01AA2726
:10127000283051F1203181F1E8946F936E7F6E5FD9
:101280007F4F8F4F9F4FAF4FB1E03ED0B4E03CD087
:10129000670F781F891F9A1FA11D680F791F8A1F6A
:1012A000911DA11D6A0F711D811D911DA11D20D0D1
:1012B00009F468943F912AE0269F11243019305D8B
:1012C0003193DEF6CF010895462F4770405D41937C
:1012D000B3E00FD0C9F7F6CF462F4F70405D4A33C9
:1012E00018F0495D31FD4052419302D0A9F7EACF91
:1012F000B4E0A6959795879577956795BA95C9F7C0
:1013000000976105710508959B01AC010A2E0694B2
:101310005795479537952795BA95C9F7620F731F6B
:10132000841F951FA01D08952F923F924F925F92A8
:101330006F927F928F929F92AF92BF92CF92DF92E5
:10134000EF92FF920F931F93CF93DF93CDB7DEB74A
:10135000CA1BDB0B0FB6F894DEBF0FBECDBF0994DE
:101360002A88398848885F846E847D848C849B8435
:10137000AA84B984C884DF80EE80FD800C811B8143
:10138000AA81B981CE0FD11D0FB6F894DEBF0FBE72
:0A139000CDBFED010895F894FFCFE2
:10139A005B25753D25755D7B2278223A25642C22D2
:1013AA0079223A25642C2272223A25647D0A0000A9
:00000001FF
