S014000050574D5F6A6F79737469636B2E737265634D
S11300000C9434000C943E000C943E000C943E007E
S11300100C943E000C943E000C943E000C943E0064
S11300200C943E000C943E000C943E000C943E0054
S11300300C943E000C943E000C943E000C943E0044
S11300400C943E000C943E000C943E000C943E0034
S11300500C943E000C943E000C943E000C943E0024
S11300600C943E000C943E0011241FBECFEFD8E048
S1130070DEBFCDBF0E9471000C948A000C94000076
S113008080E480937C0087E880937A0008958770E9
S1130090ECE7F0E09081987F892B8083EAE7F0E039
S11300A080818064808380917A0086FDFCCF80917A
S11300B0780090917900089584B1866084B982EAC9
S11300C0809380008AE1809381008FE39CE9909380
S11300D08700809386000895909389008093880018
S11300E008950E945C000E94400080E00E94470046
S11300F086509F4F880F991F880F991F0E946C008C
S11301002FE986E891E0215080409040E1F700C05B
S10B01100000EBCFF894FFCFCF
S9030000FC
