S014000050574D5F6A6F79737469636B2E737265634D
S11300000C9434000C943E000C943E000C943E007E
S11300100C943E000C943E000C943E000C943E0064
S11300200C943E000C943E000C943E000C943E0054
S11300300C943E000C943E000C943E000C943E0044
S11300400C943E000C943E000C943E000C943E0034
S11300500C943E000C943E000C943E000C943E0024
S11300600C943E000C943E0011241FBECFEFD8E048
S1130070DEBFCDBF0E9475000C9452020C940000A8
S113008080E480937C0087E880937A0008958370ED
S1130090ECE7F0E09081987F892B8083EAE7F0E039
S11300A080818064808380917A0086FDFCCF80917A
S11300B0780090917900089584B1866084B982EAC9
S11300C0809380008AE1809381008FE39CE9909380
S11300D08700809386000895909389008093880018
S11300E070938B0060938A0008950E945C000E94C4
S11300F0400080E00E944700BC0180E090E00E9444
S1130100570120E93EE34AE750E40E94E50120E07C
S113011030E04AE754E40E94B5000E9421016B01DB
S11301207C0181E00E944700BC0180E090E00E94D5
S1130130570120E93EE34AE750E40E94E50120E04C
S113014030E04AE754E40E94B5000E942101C60150
S11301500E946C002FEF80E792E021508040904095
S1130160E1F700C00000C5CF5058BB27AA270E9462
S1130170CC000C94AB010E949D0138F00E94A401B4
S113018020F039F49F3F19F426F40C949A010EF4EC
S1130190E095E7FB0C949401E92F0E94BC0158F30D
S11301A0BA17620773078407950720F079F4A6F558
S11301B00C94DE010EF4E0950B2EBA2FA02D0B014A
S11301C0B90190010C01CA01A0011124FF27591B98
S11301D099F0593F50F4503E68F11A16F040A22F9E
S11301E0232F342F4427585FF3CF4695379527950F
S11301F0A795F0405395C9F77EF41F16BA0B620B0E
S1130200730B840BBAF09150A1F0FF0FBB1F661F54
S1130210771F881FC2F70EC0BA0F621F731F841F97
S113022048F4879577956795B795F7959E3F08F0BD
S1130230B0CF9395880F08F09927EE0F979587957F
S113024008950E9428016894B1110C94DF01089567
S11302500E94C40188F09F5798F0B92F9927B7518D
S1130260B0F0E1F0660F771F881F991F1AF0BA9556
S1130270C9F714C0B13091F00E94DE01B1E00895D5
S11302800C94DE01672F782F8827B85F39F0B93FC7
S1130290CCF3869577956795B395D9F73EF4909509
S11302A08095709561957F4F8F4F9F4F0895E89487
S11302B009C097FB3EF490958095709561957F4FAA
S11302C08F4F9F4F9923A9F0F92F96E9BB27939558
S11302D0F695879577956795B795F111F8CFFAF468
S11302E0BB0F11F460FF1BC06F5F7F4F8F4F9F4F99
S11302F016C0882311F096E911C0772321F09EE8F7
S1130300872F762F05C0662371F096E8862F70E05C
S113031060E02AF09A95660F771F881FDAF7880F36
S11303209695879597F9089597F99F6780E870E007
S113033060E008959FEF80EC089500240A94161657
S1130340170618060906089500240A9412161306BF
S1130350140605060895092E0394000C11F488234D
S113036052F0BB0F40F4BF2B11F460FF04C06F5F69
S11303707F4F8F4F9F4F089557FD9058440F551F3F
S113038059F05F3F71F04795880F97FB991F61F013
S11303909F3F79F087950895121613061406551F8A
S11303A0F2CF4695F1DF08C0161617061806991FF6
S11303B0F1CF86957105610508940895E894BB27EB
S11303C066277727CB0197F908950E94F8010C94CA
S11303D0AB010E949D0138F00E94A40120F09523F6
S11303E011F00C9494010C949A0111240C94DF01E3
S11303F00E94BC0170F3959FC1F3950F50E0551F07
S1130400629FF001729FBB27F00DB11D639FAA2765
S1130410F00DB11DAA1F649F6627B00DA11D661FB4
S1130420829F2227B00DA11D621F739FB00DA11DD5
S1130430621F839FA00D611D221F749F3327A00D8F
S1130440611D231F849F600D211D822F762F6A2F2B
S113045011249F5750409AF0F1F088234AF0EE0F90
S1130460FF1FBB1F661F771F881F91505040A9F7BD
S11304709E3F510580F00C9494010C94DF015F3F82
S1130480E4F3983ED4F3869577956795B795F795F9
S1130490E7959F5FC1F7FE2B880F911D9695879571
S10B04A097F90895F894FFCFC9
S9030000FC
