S014000050574D5F6A6F79737469636B2E737265634D
S11300000C9434000C943E000C943E000C943E007E
S11300100C943E000C943E000C943E000C943E0064
S11300200C943E000C943E000C943E000C943E0054
S11300300C943E000C943E000C943E000C943E0044
S11300400C943E000C943E000C943E000C943E0034
S11300500C943E000C943E000C943E000C943E0024
S11300600C943E000C943E0011241FBECFEFD8E048
S1130070DEBFCDBF0E9475000C948F000C9400006D
S113008080E480937C0087E880937A0008958370ED
S1130090ECE7F0E09081987F892B8083EAE7F0E039
S11300A080818064808380917A0086FDFCCF80917A
S11300B0780090917900089584B1866084B982EAC9
S11300C0809380008AE1809381008FE39CE9909380
S11300D08700809386000895909389008093880018
S11300E070938B0060938A0008950E945C000E94C4
S11300F0400080E00E94470081E00E94470064EFD6
S113010071E084EF91E00E946C002FEF80E792E0B1
S1130110215080409040E1F700C00000EACFF894FD
S1050120FFCF0B
S9030000FC
