:100000000C9434000C943E000C943E000C943E0082
:100010000C943E000C943E000C943E000C943E0068
:100020000C943E000C943E000C943E000C943E0058
:100030000C943E000C943E000C943E000C943E0048
:100040000C943E000C943E000C943E000C943E0038
:100050000C943E000C943E000C943E000C943E0028
:100060000C943E000C943E0011241FBECFEFD8E04C
:10007000DEBFCDBF0E945A000C945D000C940000BE
:1000800084B1866084B982EA809380008AE180939B
:1000900081008FE39CE9909387008093860088EB32
:1000A0009BE0909389008093880090938B008093CD
:0E00B0008A0008950E944000FFCFF894FFCF11
:00000001FF
