S0150000556172745F6E6F64652D7265642E7372656306
S11300000C9434000C9488000C9451000C9451000E
S11300100C9451000C9451000C9451000C94510018
S11300200C9451000C9451000C9451000C94510008
S11300300C9451000C9451000C94A9000C945100A0
S11300400C9451000C9451000C9451000C945100E8
S11300500C9451000C9451000C9451000C945100D8
S11300600C9451000C94510011241FBECFEFD8E022
S1130070DEBFCDBF11E0A0E0B1E0E4E6FDE002C0E8
S113008005900D92A032B107D9F721E0A0E2B1E0CA
S113009001C01D92A732B207E1F70E940F010C9430
S11300A0B0060C94000080E480937C0087E8809381
S11300B07A0008958770ECE7F0E09081987F892BAF
S11300C08083EAE7F0E080818064808380917A0015
S11300D086FDFCCF8091780090917900089584B1D9
S11300E0866084B982EA809380008AE180938100EB
S11300F08FE39CE990938700809386000895909302
S113010089008093880070938B0060938A0008951F
S11301101F920F920FB60F9211248F93EF93FF93B8
S113012010922301109226011092240110922201B0
S113013016BC82E085BBEEE6F0E0808182608083BD
S11301401DBAFF91EF918F910F900FBE0F901F90EA
S113015018951F920F920FB60F9211242F938F931D
S11301609F93EF93FF9380912201811104C08F5FCD
S11301708093220139C0209123012A307CF0EEE6DD
S1130180F0E080818D7F80831092210181E0809353
S113019025018CBB8DB381608DBB26C089B183FBE7
S11301A0882780F98093210190E0022E02C0880FF5
S11301B0991F0A94E2F790912601892B80932601D6
S11301C089B1829581708093200190E0022E02C053
S11301D0880F991F0A94E2F790912401892B809348
S11301E024012F5F20932301FF91EF919F918F9121
S11301F02F910F900FBE0F901F901895E9E6F0E035
S113020010821DBA8081836080838DB381608DBB31
S1130210089582E084BD85BD83E687BD0895CF93AC
S1130220DF93CDB7DEB7E2970FB6F894DEBF0FBE0B
S1130230CDBF0E946F000E94530087E690E00E94A9
S1130240EF010E9409010E94FE008AB1837E8AB9EF
S11302508AB180628AB98AB180648AB98BB18460B8
S11302608BB98BB188608BB98BB180618BB9789471
S11302700E940E02892B19F00E941302182F1133C9
S113028009F082C080E00E945A006C0181E00E9463
S11302905A007C01B60180E090E00E94BD024B014F
S11302A05C012BE03DE244E35EE30E944B030E94C9
S11302B08702D62EC72EB70180E090E00E94BD02CF
S11302C02B013C012BE03DE244E35EE30E944B033F
S11302D00E948702F62EE72E20E93EE34AEF5FE311
S11302E0C501B4010E944B0320E030E04AEF54E41E
S11302F00E941B020E9487024B015C0120E93EE33D
S11303004AEF5FE3C301B2010E944B0320E030E0F7
S11303104AEF54E40E941B020E948702C4010E9417
S11303207F0080912501813009F51F9285E08F932C
S1130330809124011F928F93809126011F928F93A5
S1130340EF92FF92CF92DF9280E091E09F938F93A0
S11303501F9282E38F93CE0101969F938F930E9405
S1130360B8030FB6F894DEBF0FBECDBFCE01019621
S11303700E9401029FE926E881E0915020408040DC
S1130380E1F700C0000074CF80912501813011F5A0
S11303901F9285E08F93809124011F928F93809107
S11303A026011F928F931F9281E08F931F928F9348
S11303B080E091E09F938F931F9282E38F93CE010D
S11303C001969F938F930E94B8030FB6F894DEBFF3
S11303D00FBECDBFCE0101960E94010249CF90937A
S11303E0C5008093C40088E18093C10086E08093B7
S11303F0C20008959091C00095FFFCCF8093C60081
S11304000895CF93DF93EC0103C021960E94FA0173
S113041088818111FACFDF91CF9108958091C00036
S1130420807890E008958091C0008823E4F780915B
S1130430C60008955058BB27AA270E9432020C9484
S113044011030E94030338F00E940A0320F039F4D8
S11304509F3F19F426F40C9400030EF4E095E7FB97
S11304600C94FA02E92F0E94220358F3BA17620788
S113047073078407950720F079F4A6F50C944403D8
S11304800EF4E0950B2EBA2FA02D0B01B9019001AB
S11304900C01CA01A0011124FF27591B99F0593FEF
S11304A050F4503E68F11A16F040A22F232F342F37
S11304B04427585FF3CF469537952795A795F04085
S11304C05395C9F77EF41F16BA0B620B730B840B9A
S11304D0BAF09150A1F0FF0FBB1F661F771F881F52
S11304E0C2F70EC0BA0F621F731F841F48F48795AA
S11304F077956795B795F7959E3F08F0B0CF93959C
S1130500880F08F09927EE0F9795879508950E9414
S11305108E026894B1110C94450308950E942A0335
S113052088F09F5798F0B92F9927B751B0F0E1F0B0
S1130530660F771F881F991F1AF0BA95C9F714C060
S1130540B13091F00E944403B1E008950C94440347
S1130550672F782F8827B85F39F0B93FCCF3869599
S113056077956795B395D9F73EF4909580957095F6
S113057061957F4F8F4F9F4F0895E89409C097FB73
S11305803EF490958095709561957F4F8F4F9F4F66
S11305909923A9F0F92F96E9BB279395F6958795AA
S11305A077956795B795F111F8CFFAF4BB0F11F46D
S11305B060FF1BC06F5F7F4F8F4F9F4F16C0882314
S11305C011F096E911C0772321F09EE8872F762F4A
S11305D005C0662371F096E8862F70E060E02AF08B
S11305E09A95660F771F881FDAF7880F9695879577
S11305F097F9089597F99F6780E870E060E008959F
S11306009FEF80EC089500240A9416161706180626
S11306100906089500240A94121613061406050602
S11306200895092E0394000C11F4882352F0BB0F93
S113063040F4BF2B11F460FF04C06F5F7F4F8F4FF6
S11306409F4F089557FD9058440F551F59F05F3F31
S113065071F04795880F97FB991F61F09F3F79F0E0
S113066087950895121613061406551FF2CF469562
S1130670F1DF08C0161617061806991FF1CF8695E4
S11306807105610508940895E894BB2766277727C8
S1130690CB0197F908950E945E030C9411030E9404
S11306A0030338F00E940A0320F0952311F00C9400
S11306B0FA020C94000311240C9445030E942203B3
S11306C070F3959FC1F3950F50E0551F629FF001A1
S11306D0729FBB27F00DB11D639FAA27F00DB11DBA
S11306E0AA1F649F6627B00DA11D661F829F222743
S11306F0B00DA11D621F739FB00DA11D621F839FCA
S1130700A00D611D221F749F3327A00D611D231F9F
S1130710849F600D211D822F762F6A2F11249F57ED
S113072050409AF0F1F088234AF0EE0FFF1FBB1FF0
S1130730661F771F881F91505040A9F79E3F5105AF
S113074080F00C94FA020C9445035F3FE4F3983E66
S1130750D4F3869577956795B795F795E7959F5F59
S1130760C1F7FE2B880F911D9695879597F90895EB
S1130770AEE0B0E0EEEBF3E00C9487060D891E8941
S11307808F89988D26E02C831A83098397FF02C0F2
S113079080E090E801979E838D83AE01455E5F4FB4
S11307A0698D7A8DCE0101960E94E8034D815E81A8
S11307B057FD0AC02F813885421753070CF49A015C
S11307C0F801E20FF31F10822E96E4E00C94A306C6
S11307D0ABE0B0E0EEEEF3E00C9479066C017B0143
S11307E08A01FC0117821682838181FFCCC1CE016C
S11307F001963C01F6019381F70193FD859193FFE6
S113080081917F01882309F4BAC1853239F493FDBB
S1130810859193FF81917F01853229F4B60190E09F
S11308200E94DF05E7CF912C212C312CFFE1F31539
S1130830D8F08B3279F038F4803279F08332A1F435
S1130840232D20611DC08D3261F0803369F4232D86
S1130850216016C0832D8260382EE32DE4603E2E85
S11308602AC0F32DF8601DC037FC2DC020ED280FE1
S11308702A3040F08E32B9F436FC81C1232D206435
S1130880322E19C036FE06C08AE0989E200D11242F
S1130890922E11C0EAE02E9E200D1124222EF32D5B
S11308A0F0623F2E08C08C3621F4832D8068382EE8
S11308B002C0883641F4F70193FD859193FF81913D
S11308C07F018111B3CF982F9F7D9554933028F4E5
S11308D00C5F1F4F9FE399830DC0833631F083373C
S11308E071F0833509F059C021C0F80180818983F2
S11308F00E5F1F4F88248394912C530113C0280149
S1130900F2E04F0E511CF801A080B18036FE03C006
S1130910692D70E002C06FEF7FEFC5010E94D4051E
S11309204C018201F32DFF773F2E16C0280122E0EF
S1130930420E511CF801A080B18036FE03C0692D1F
S113094070E002C06FEF7FEFC5010E94C9054C0142
S1130950F32DF0683F2E820133FC1BC0822D90E002
S113096088169906B0F4B60180E290E00E94DF0593
S11309702A94F4CFF50137FC859137FE81915F010C
S1130980B60190E00E94DF0521102A9421E0821A2A
S113099091088114910471F7E8C0843611F0893606
S11309A041F5F80137FE07C060817181828193812E
S11309B00C5F1F4F08C060817181072E000C880BEB
S11309C0990B0E5F1F4FF32DFF763F2E97FF09C043
S11309D090958095709561957F4F8F4F9F4FF068EC
S11309E03F2E2AE030E0A3010E941B06882E8618C1
S11309F045C0853731F4232D2F7EB22E2AE030E016
S1130A0025C0932D997FB92E8F36C1F018F48835FF
S1130A1079F0B5C0803719F0883721F0B0C0E92FDC
S1130A20E061BE2EB4FE0DC0FB2DF460BF2E09C0E4
S1130A3034FE0AC0292F2660B22E06C028E030E01A
S1130A4005C020E130E002C020E132E0F801B7FE49
S1130A5007C060817181828193810C5F1F4F06C042
S1130A606081718180E090E00E5F1F4FA3010E94BE
S1130A701B06882E8618FB2DFF773F2E36FE0DC0F1
S1130A80232D2E7FA22E891458F434FE0BC032FC81
S1130A9009C0832D8E7EA82E05C0B82CA32C03C0BC
S1130AA0B82C01C0B92CA4FE0FC0FE01E80DF11D45
S1130AB08081803321F49A2D997EA92E09C0A2FE4B
S1130AC006C0B394B39404C08A2D867809F0B39415
S1130AD0A3FC11C0A0FE06C0B21488F4280C922C0A
S1130AE09B180EC0B21460F4B60180E290E00E943C
S1130AF0DF05B394F7CFB21418F42B1802C0982C66
S1130B00212CA4FE10C0B60180E390E00E94DF0512
S1130B10A2FE17C0A1FC03C088E790E002C088E5EC
S1130B2090E0B6010CC08A2D867859F0A1FE02C06F
S1130B308BE201C080E2A7FC8DE2B60190E00E9446
S1130B40DF05891438F4B60180E390E00E94DF05E4
S1130B509A94F7CF8A94F301E80DF11D8081B601D0
S1130B6090E00E94DF058110F5CF222009F442CEE7
S1130B70B60180E290E00E94DF052A94F6CFF601E8
S1130B808681978102C08FEF9FEF2B96E2E10C9450
S1130B909506FC010590615070400110D8F78095CE
S1130BA090958E0F9F1F0895FC0161507040019035
S1130BB00110D8F7809590958E0F9F1F08950F937D
S1130BC01F93CF93DF93FB01238121FD03C08FEF9C
S1130BD09FEF2CC022FF16C04681578124813581A6
S1130BE04217530744F4A081B1819D012F5F3F4F09
S1130BF0318320838C93268137812F5F3F4F378346
S1130C00268314C08B01EC01FB010084F185E02DE7
S1130C100995892BE1F6D80116968D919C91179729
S1130C20019617969C938E931697CE01DF91CF91E0
S1130C301F910F910895FA01AA27283051F120310C
S1130C4081F1E8946F936E7F6E5F7F4F8F4F9F4F5C
S1130C50AF4FB1E03ED0B4E03CD0670F781F891F9E
S1130C609A1FA11D680F791F8A1F911DA11D6A0F6C
S1130C70711D811D911DA11D20D009F468943F911F
S1130C802AE0269F11243019305D3193DEF6CF011E
S1130C900895462F4770405D4193B3E00FD0C9F7E4
S1130CA0F6CF462F4F70405D4A3318F0495D31FD51
S1130CB04052419302D0A9F7EACFB4E0A6959795A4
S1130CC0879577956795BA95C9F70097610571057A
S1130CD008959B01AC010A2E0694579547953795C4
S1130CE02795BA95C9F7620F731F841F951FA01D1E
S1130CF008952F923F924F925F926F927F928F92BC
S1130D009F92AF92BF92CF92DF92EF92FF920F9396
S1130D101F93CF93DF93CDB7DEB7CA1BDB0B0FB6A0
S1130D20F894DEBF0FBECDBF09942A88398848885D
S1130D305F846E847D848C849B84AA84B984C884F3
S1130D40DF80EE80FD800C811B81AA81B981CE0FEA
S1130D50D11D0FB6F894DEBF0FBECDBFED010895CF
S1070D60F894FFCF31
S1130D645B25753D25755D7B2278223A25642C220A
S1130D7479223A25642C2272223A25647D0A0000E1
S9030000FC
