S0150000556172745F6E6F64652D7265642E7372656306
S11300000C9434000C9451000C9451000C94510045
S11300100C9451000C9451000C9451000C94510018
S11300200C9451000C9451000C9451000C94510008
S11300300C9451000C9451000C9451000C945100F8
S11300400C9451000C9451000C9451000C945100E8
S11300500C9451000C9451000C9451000C945100D8
S11300600C9451000C94510011241FBECFEFD8E022
S1130070DEBFCDBF11E0A0E0B1E0E8E8FCE002C0E3
S113008005900D92AA33B107D9F721E0AAE3B1E0B4
S113009001C01D92A034B207E1F70E9452010C94F2
S11300A042060C940000EF92FF920F931F93CF939C
S11300B0DF93CDB7DEB7E2970FB6F894DEBF0FBE7D
S11300C0CDBF0E94CB0166E071E00E94E5018C0186
S11300D066E071E080E090E00E94E5010115110501
S11300E009F4D3C0009709F4D0C00E94AD01F82EE2
S11300F0E92E68E071E0C8010E94EA01892B11F53C
S1130100EF92FF921F9281E08F931F928F931F9221
S11301108F931F928F938BE091E09F938F931F9205
S113012082E38F938E010F5F1F4F1F930F930E94E3
S11301302902C8010E9494010FB6F894DEBF0FBED5
S1130140CDBFA3C06AE271E0C8010E94EA01892B15
S113015011F5EF92FF921F9282E08F931F928F937B
S11301601F928F931F928F938BE091E09F938F93B5
S11301701F9282E38F938E010F5F1F4F1F930F9384
S11301800E942902C8010E9494010FB6F894DEBFB0
S11301900FBECDBF7AC06DE271E0C8010E94EA01D2
S11301A0892B11F5EF92FF921F9282E08F931F9299
S11301B08F931F928F931F928F938BE091E09F9365
S11301C08F931F9282E38F938E010F5F1F4F1F93B4
S11301D00F930E942902C8010E9494010FB6F8945B
S11301E0DEBF0FBECDBF51C060E371E0C8010E9405
S11301F0EA01892B11F5EF92FF921F9282E08F930F
S11302001F928F931F928F931F928F938BE091E095
S11302109F938F931F9282E38F938E010F5F1F4FE3
S11302201F930F930E942902C8010E9494010FB6E4
S1130230F894DEBF0FBECDBF28C065E371E0C801EE
S11302400E94EA01892B09F5EF92FF921F9282E046
S11302508F931F928F931F928F931F928F938BE094
S113026091E09F938F931F9282E38F938E010F5F90
S11302701F4F1F930F930E942902C8010E949401EB
S11302800FB6F894DEBF0FBECDBFE2960FB6F8945A
S1130290DEBF0FBECDBFDF91CF911F910F91FF90B5
S11302A0EF900895CF93DF93CDB7DEB7E2970FB603
S11302B0F894DEBF0FBECDBF87E690E00E948201B6
S11302C000E010E00E94A101892BE1F30E94A60145
S11302D08A3071F4E1E0F0E0EC0FFD1FE00FF11F54
S11302E01082CE0101960E94530000E010E0EACF94
S11302F0E1E0F0E0EC0FFD1FE00FF11F80830F5FE2
S11303001F4FE0CF9093C5008093C40088E1809391
S1130310C10086E08093C20008959091C00095FFCB
S1130320FCCF8093C6000895CF93DF93EC0103C004
S113033021960E948D0188818111FACFDF91CF919E
S113034008958091C000807890E008958091C00065
S11303508823E4F78091C6000895FC018827992733
S1130360E89421912032E9F3293010F02E30C8F3BB
S11303702B3241F02D3239F4689404C00E942102DA
S1130380820F911D219120532A30C0F31EF49095C1
S113039081959F4F08950F931F93CF93DF938C0103
S11303A0FC0101900020E9F7CF01801B910B0E9412
S11303B03A04EC01009719F0B8010E94F301CE0150
S11303C0DF91CF911F910F9108954AE351E00E946C
S11303D0FA010895FB01DC018D910190801901104F
S11303E0D9F3990B0895FB01DC0101900D920020D3
S11303F0E1F70895FA01A191B081009719F41097DB
S1130400E1F0CD01DC01CD010D90002011F4C0011B
S113041013C0FB012191222319F02015D9F7F3CF42
S1130420FB012191201519F41E92119606C0222376
S1130430C1F70D900020A1F7D001FA01A193B08378
S113044008957AE0979F902D879F802D910D112418
S11304500895AEE0B0E0EFE2F2E00C9419060D89E5
S11304601E898F89988D26E02C831A83098397FF30
S113047002C080E090E801979E838D83AE01455EC3
S11304805F4F698D7A8DCE0101960E9459024D818C
S11304905E8157FD0AC02F813885421753070CF43B
S11304A09A01F801E20FF31F10822E96E4E00C94F7
S11304B03506ABE0B0E0EFE5F2E00C940B066C011E
S11304C07B018A01FC0117821682838181FFCCC1E2
S11304D0CE0101963C01F6019381F70193FD8591CC
S11304E093FF81917F01882309F4BAC1853239F4DD
S11304F093FD859193FF81917F01853229F4B601A3
S113050090E00E947105E7CF912C212C312CFFE162
S1130510F315D8F08B3279F038F4803279F08332E5
S1130520A1F4232D20611DC08D3261F0803369F464
S1130530232D216016C0832D8260382EE32DE460C4
S11305403E2E2AC0F32DF8601DC037FC2DC020EDCF
S1130550280F2A3040F08E32B9F436FC81C1232DA5
S11305602064322E19C036FE06C08AE0989E200D03
S11305701124922E11C0EAE02E9E200D1124222E69
S1130580F32DF0623F2E08C08C3621F4832D806851
S1130590382E02C0883641F4F70193FD859193FF0C
S11305A081917F018111B3CF982F9F7D9554933012
S11305B028F40C5F1F4F9FE399830DC0833631F0FD
S11305C0833771F0833509F059C021C0F801808167
S11305D089830E5F1F4F88248394912C530113C089
S11305E02801F2E04F0E511CF801A080B18036FEC4
S11305F003C0692D70E002C06FEF7FEFC5010E9458
S113060066054C018201F32DFF773F2E16C02801A9
S113061022E0420E511CF801A080B18036FE03C0D6
S1130620692D70E002C06FEF7FEFC5010E945B058A
S11306304C01F32DF0683F2E820133FC1BC0822D48
S113064090E088169906B0F4B60180E290E00E942A
S113065071052A94F4CFF50137FC859137FE819119
S11306605F01B60190E00E94710521102A9421E0F7
S1130670821A91088114910471F7E8C0843611F04C
S1130680893641F5F80137FE07C0608171818281A6
S113069093810C5F1F4F08C060817181072E000C8D
S11306A0880B990B0E5F1F4FF32DFF763F2E97FF9C
S11306B009C090958095709561957F4F8F4F9F4F9E
S11306C0F0683F2E2AE030E0A3010E94AD05882E99
S11306D0861845C0853731F4232D2F7EB22E2AE0AB
S11306E030E025C0932D997FB92E8F36C1F018F4D0
S11306F0883579F0B5C0803719F0883721F0B0C05B
S1130700E92FE061BE2EB4FE0DC0FB2DF460BF2EB8
S113071009C034FE0AC0292F2660B22E06C028E084
S113072030E005C020E130E002C020E132E0F80111
S1130730B7FE07C060817181828193810C5F1F4F76
S113074006C06081718180E090E00E5F1F4FA301BD
S11307500E94AD05882E8618FB2DFF773F2E36FEAE
S11307600DC0232D2E7FA22E891458F434FE0BC005
S113077032FC09C0832D8E7EA82E05C0B82CA32C74
S113078003C0B82C01C0B92CA4FE0FC0FE01E80DB3
S1130790F11D8081803321F49A2D997EA92E09C000
S11307A0A2FE06C0B394B39404C08A2D867809F0DF
S11307B0B394A3FC11C0A0FE06C0B21488F4280CA4
S11307C0922C9B180EC0B21460F4B60180E290E043
S11307D00E947105B394F7CFB21418F42B1802C019
S11307E0982C212CA4FE10C0B60180E390E00E9456
S11307F07105A2FE17C0A1FC03C088E790E002C007
S113080088E590E0B6010CC08A2D867859F0A1FEE7
S113081002C08BE201C080E2A7FC8DE2B60190E049
S11308200E947105891438F4B60180E390E00E94B7
S113083071059A94F7CF8A94F301E80DF11D808134
S1130840B60190E00E9471058110F5CF222009F4D1
S113085042CEB60180E290E00E9471052A94F6CF60
S1130860F6018681978102C08FEF9FEF2B96E2E11C
S11308700C9427060F931F93CF93DF938230910537
S113088010F482E090E0E0913E01F0913F0120E01D
S113089030E0A0E0B0E0309719F14081518102814D
S11308A0138148175907C8F08417950769F41097FE
S11308B031F012960C93129713961C9327C0009351
S11308C03E0110933F0122C02115310519F0421752
S11308D0530718F49A01BD01EF01DF01F801DBCFE2
S11308E021153105F9F0281B390B2430310580F42A
S11308F08A819B816115710521F0FB0193838283B9
S113090004C090933F0180933E01FE01329644C09F
S1130910FE01E20FF31F8193919322503109398331
S113092028833AC020913C0130913D01232B41F4AE
S1130930209102013091030130933D0120933C0149
S113094020910001309101012115310541F42DB7A9
S11309503EB74091040150910501241B350BE091F1
S11309603C01F0913D01E217F307A0F42E1B3F0B6D
S11309702817390778F0AC014E5F5F4F241735070D
S113098048F04E0F5F1F50933D0140933C0181930B
S1130990919302C0E0E0F0E0CF01DF91CF911F918D
S11309A00F910895CF93DF93009709F481C0FC0160
S11309B0329713821282A0913E01B0913F011097A9
S11309C081F420813181820F931F20913C01309169
S11309D03D012817390751F5F0933D01E0933C019F
S11309E067C0ED0120E030E0CE17DF0740F44A8114
S11309F05B819E0141155105F1F0EA01F5CFD383E6
S1130A00C28340815181840F951FC817D90759F4B7
S1130A1088819981840F951F0296918380838A81AE
S1130A209B81938382832115310529F4F0933F013F
S1130A30E0933E013DC0E901FB83EA83499159916A
S1130A40C40FD51FEC17FD0761F480819181840FD9
S1130A50951F0296E90199838883828193819B8300
S1130A608A83E0E0F0E012968D919C9113970097B1
S1130A7019F0FD01DC01F7CF8D919C9111979D0137
S1130A802E5F3F4F820F931F20913C0130913D0117
S1130A902817390769F4309729F410923F0110920E
S1130AA03E0102C013821282B0933D01A0933C0127
S1130AB0DF91CF910895FC010590615070400110C1
S1130AC0D8F7809590958E0F9F1F0895FC01615073
S1130AD0704001900110D8F7809590958E0F9F1F5C
S1130AE008950F931F93CF93DF93FB01238121FD7F
S1130AF003C08FEF9FEF2CC022FF16C046815781A1
S1130B00248135814217530744F4A081B1819D01AA
S1130B102F5F3F4F318320838C93268137812F5F52
S1130B203F4F3783268314C08B01EC01FB01008403
S1130B30F185E02D0995892BE1F6D80116968D9162
S1130B409C911797019617969C938E931697CE01B6
S1130B50DF91CF911F910F910895FA01AA272830B0
S1130B6051F1203181F1E8946F936E7F6E5F7F4F76
S1130B708F4F9F4FAF4FB1E03ED0B4E03CD0670FF2
S1130B80781F891F9A1FA11D680F791F8A1F911D45
S1130B90A11D6A0F711D811D911DA11D20D009F495
S1130BA068943F912AE0269F11243019305D3193D7
S1130BB0DEF6CF010895462F4770405D4193B3E0C0
S1130BC00FD0C9F7F6CF462F4F70405D4A3318F067
S1130BD0495D31FD4052419302D0A9F7EACFB4E018
S1130BE0A6959795879577956795BA95C9F70097D0
S1130BF06105710508959B01AC010A2E0694579571
S1130C00479537952795BA95C9F7620F731F841FC7
S1130C10951FA01D08952F923F924F925F926F925D
S1130C207F928F929F92AF92BF92CF92DF92EF9278
S1130C30FF920F931F93CF93DF93CDB7DEB7CA1BF9
S1130C40DB0B0FB6F894DEBF0FBECDBF09942A8824
S1130C50398848885F846E847D848C849B84AA84CC
S1130C60B984C884DF80EE80FD800C811B81AA8159
S1130C70B981CE0FD11D0FB6F894DEBF0FBECDBF24
S10B0C80ED010895F894FFCF83
S1130C880000400120003A004B70005B25753D25AB
S1130C98755D7B2278223A25642C2279223A2564D0
S1130CA82C2272223A25647D0A004B69004B6400A9
S10D0CB85265665800526566590043
S9030000FC
